{
	"contracts/Kyber-Jarvis.sol": {
		"arbitragejeur": {
			"abi": [
				{
					"inputs": [
						{
							"internalType": "address",
							"name": "_addressProvider",
							"type": "address"
						}
					],
					"stateMutability": "nonpayable",
					"type": "constructor"
				},
				{
					"anonymous": false,
					"inputs": [
						{
							"indexed": true,
							"internalType": "address",
							"name": "_from",
							"type": "address"
						},
						{
							"indexed": true,
							"internalType": "address",
							"name": "_assetAddress",
							"type": "address"
						},
						{
							"indexed": false,
							"internalType": "uint256",
							"name": "amount",
							"type": "uint256"
						}
					],
					"name": "LogWithdraw",
					"type": "event"
				},
				{
					"anonymous": false,
					"inputs": [
						{
							"indexed": true,
							"internalType": "address",
							"name": "previousOwner",
							"type": "address"
						},
						{
							"indexed": true,
							"internalType": "address",
							"name": "newOwner",
							"type": "address"
						}
					],
					"name": "OwnershipTransferred",
					"type": "event"
				},
				{
					"inputs": [],
					"name": "addressesProvider",
					"outputs": [
						{
							"internalType": "contract ILendingPoolAddressesProvider",
							"name": "",
							"type": "address"
						}
					],
					"stateMutability": "view",
					"type": "function"
				},
				{
					"inputs": [
						{
							"internalType": "address",
							"name": "_reserve",
							"type": "address"
						},
						{
							"internalType": "uint256",
							"name": "_amount",
							"type": "uint256"
						},
						{
							"internalType": "uint256",
							"name": "_fee",
							"type": "uint256"
						},
						{
							"internalType": "bytes",
							"name": "_params",
							"type": "bytes"
						}
					],
					"name": "executeOperation",
					"outputs": [],
					"stateMutability": "nonpayable",
					"type": "function"
				},
				{
					"inputs": [],
					"name": "flashloan",
					"outputs": [],
					"stateMutability": "nonpayable",
					"type": "function"
				},
				{
					"inputs": [],
					"name": "owner",
					"outputs": [
						{
							"internalType": "address",
							"name": "",
							"type": "address"
						}
					],
					"stateMutability": "view",
					"type": "function"
				},
				{
					"inputs": [],
					"name": "renounceOwnership",
					"outputs": [],
					"stateMutability": "nonpayable",
					"type": "function"
				},
				{
					"inputs": [
						{
							"internalType": "address",
							"name": "newOwner",
							"type": "address"
						}
					],
					"name": "transferOwnership",
					"outputs": [],
					"stateMutability": "nonpayable",
					"type": "function"
				},
				{
					"inputs": [
						{
							"internalType": "address",
							"name": "_assetAddress",
							"type": "address"
						}
					],
					"name": "withdraw",
					"outputs": [],
					"stateMutability": "nonpayable",
					"type": "function"
				},
				{
					"stateMutability": "payable",
					"type": "receive"
				}
			],
			"devdoc": {
				"kind": "dev",
				"methods": {
					"owner()": {
						"details": "Returns the address of the current owner."
					},
					"renounceOwnership()": {
						"details": "Leaves the contract without owner. It will not be possible to call `onlyOwner` functions anymore. Can only be called by the current owner. NOTE: Renouncing ownership will leave the contract without an owner, thereby removing any functionality that is only available to the owner."
					},
					"transferOwnership(address)": {
						"details": "Transfers ownership of the contract to a new account (`newOwner`). Can only be called by the current owner."
					},
					"withdraw(address)": {
						"details": "Withdraw asset.",
						"params": {
							"_assetAddress": "Asset to be withdrawn."
						}
					}
				},
				"version": 1
			},
			"evm": {
				"assembly": "    /* \"contracts/Kyber-Jarvis.sol\":541:2179  contract arbitragejeur is Ownable, FlashLoanReceiverBase  {\r... */\n  mstore(0x40, 0x80)\n    /* \"contracts/Kyber-Jarvis.sol\":638:725  constructor(address _addressProvider) FlashLoanReceiverBase(_addressProvider) public {} */\n  callvalue\n  dup1\n  iszero\n  tag_1\n  jumpi\n  0x00\n  dup1\n  revert\ntag_1:\n  pop\n  mload(0x40)\n  sub(codesize, bytecodeSize)\n  dup1\n  bytecodeSize\n  dup4\n  codecopy\n  dup2\n  dup2\n  add\n  0x40\n  mstore\n  0x20\n  dup2\n  lt\n  iszero\n  tag_2\n  jumpi\n  0x00\n  dup1\n  revert\ntag_2:\n  dup2\n  add\n  swap1\n  dup1\n  dup1\n  mload\n  swap1\n  0x20\n  add\n  swap1\n  swap3\n  swap2\n  swap1\n  pop\n  pop\n  pop\n    /* \"contracts/Kyber-Jarvis.sol\":698:714  _addressProvider */\n  dup1\n    /* \"https://github.com/OpenZeppelin/openzeppelin-contracts/blob/solc-0.6/contracts/access/Ownable.sol\":884:901  address msgSender */\n  0x00\n    /* \"https://github.com/OpenZeppelin/openzeppelin-contracts/blob/solc-0.6/contracts/access/Ownable.sol\":904:916  _msgSender() */\n  tag_7\n    /* \"https://github.com/OpenZeppelin/openzeppelin-contracts/blob/solc-0.6/contracts/access/Ownable.sol\":904:914  _msgSender */\n  shl(0x20, tag_8)\n    /* \"https://github.com/OpenZeppelin/openzeppelin-contracts/blob/solc-0.6/contracts/access/Ownable.sol\":904:916  _msgSender() */\n  0x20\n  shr\n  jump\t// in\ntag_7:\n    /* \"https://github.com/OpenZeppelin/openzeppelin-contracts/blob/solc-0.6/contracts/access/Ownable.sol\":884:916  address msgSender = _msgSender() */\n  swap1\n  pop\n    /* \"https://github.com/OpenZeppelin/openzeppelin-contracts/blob/solc-0.6/contracts/access/Ownable.sol\":935:944  msgSender */\n  dup1\n    /* \"https://github.com/OpenZeppelin/openzeppelin-contracts/blob/solc-0.6/contracts/access/Ownable.sol\":926:932  _owner */\n  0x00\n  dup1\n    /* \"https://github.com/OpenZeppelin/openzeppelin-contracts/blob/solc-0.6/contracts/access/Ownable.sol\":926:944  _owner = msgSender */\n  0x0100\n  exp\n  dup2\n  sload\n  dup2\n  0xffffffffffffffffffffffffffffffffffffffff\n  mul\n  not\n  and\n  swap1\n  dup4\n  0xffffffffffffffffffffffffffffffffffffffff\n  and\n  mul\n  or\n  swap1\n  sstore\n  pop\n    /* \"https://github.com/OpenZeppelin/openzeppelin-contracts/blob/solc-0.6/contracts/access/Ownable.sol\":992:1001  msgSender */\n  dup1\n    /* \"https://github.com/OpenZeppelin/openzeppelin-contracts/blob/solc-0.6/contracts/access/Ownable.sol\":959:1002  OwnershipTransferred(address(0), msgSender) */\n  0xffffffffffffffffffffffffffffffffffffffff\n  and\n    /* \"https://github.com/OpenZeppelin/openzeppelin-contracts/blob/solc-0.6/contracts/access/Ownable.sol\":988:989  0 */\n  0x00\n    /* \"https://github.com/OpenZeppelin/openzeppelin-contracts/blob/solc-0.6/contracts/access/Ownable.sol\":959:1002  OwnershipTransferred(address(0), msgSender) */\n  0xffffffffffffffffffffffffffffffffffffffff\n  and\n  0x8be0079c531659141344cd1fd0a4f28419497f9722a3daafe3b4186f6b6457e0\n  mload(0x40)\n  mload(0x40)\n  dup1\n  swap2\n  sub\n  swap1\n  log3\n    /* \"https://github.com/OpenZeppelin/openzeppelin-contracts/blob/solc-0.6/contracts/access/Ownable.sol\":850:1009  constructor () internal {... */\n  pop\n    /* \"https://github.com/aave/flashloan-box/blob/master/contracts/aave/FlashLoanReceiverBase.sol\":1076:1092  _addressProvider */\n  dup1\n    /* \"https://github.com/aave/flashloan-box/blob/master/contracts/aave/FlashLoanReceiverBase.sol\":1026:1043  addressesProvider */\n  0x01\n  0x00\n    /* \"https://github.com/aave/flashloan-box/blob/master/contracts/aave/FlashLoanReceiverBase.sol\":1026:1093  addressesProvider = ILendingPoolAddressesProvider(_addressProvider) */\n  0x0100\n  exp\n  dup2\n  sload\n  dup2\n  0xffffffffffffffffffffffffffffffffffffffff\n  mul\n  not\n  and\n  swap1\n  dup4\n  0xffffffffffffffffffffffffffffffffffffffff\n  and\n  mul\n  or\n  swap1\n  sstore\n  pop\n    /* \"https://github.com/aave/flashloan-box/blob/master/contracts/aave/FlashLoanReceiverBase.sol\":971:1100  constructor(address _addressProvider) public {... */\n  pop\n    /* \"contracts/Kyber-Jarvis.sol\":638:725  constructor(address _addressProvider) FlashLoanReceiverBase(_addressProvider) public {} */\n  pop\n    /* \"contracts/Kyber-Jarvis.sol\":541:2179  contract arbitragejeur is Ownable, FlashLoanReceiverBase  {\r... */\n  jump(tag_11)\n    /* \"https://github.com/OpenZeppelin/openzeppelin-contracts/blob/solc-0.6/contracts/utils/Context.sol\":598:702  function _msgSender() internal view virtual returns (address payable) {... */\ntag_8:\n    /* \"https://github.com/OpenZeppelin/openzeppelin-contracts/blob/solc-0.6/contracts/utils/Context.sol\":651:666  address payable */\n  0x00\n    /* \"https://github.com/OpenZeppelin/openzeppelin-contracts/blob/solc-0.6/contracts/utils/Context.sol\":685:695  msg.sender */\n  caller\n    /* \"https://github.com/OpenZeppelin/openzeppelin-contracts/blob/solc-0.6/contracts/utils/Context.sol\":678:695  return msg.sender */\n  swap1\n  pop\n    /* \"https://github.com/OpenZeppelin/openzeppelin-contracts/blob/solc-0.6/contracts/utils/Context.sol\":598:702  function _msgSender() internal view virtual returns (address payable) {... */\n  swap1\n  jump\t// out\n    /* \"contracts/Kyber-Jarvis.sol\":541:2179  contract arbitragejeur is Ownable, FlashLoanReceiverBase  {\r... */\ntag_11:\n  dataSize(sub_0)\n  dup1\n  dataOffset(sub_0)\n  0x00\n  codecopy\n  0x00\n  return\nstop\n\nsub_0: assembly {\n        /* \"contracts/Kyber-Jarvis.sol\":541:2179  contract arbitragejeur is Ownable, FlashLoanReceiverBase  {\r... */\n      mstore(0x40, 0x80)\n      jumpi(tag_1, lt(calldatasize, 0x04))\n      shr(0xe0, calldataload(0x00))\n      dup1\n      0x8da5cb5b\n      gt\n      tag_10\n      jumpi\n      dup1\n      0x8da5cb5b\n      eq\n      tag_6\n      jumpi\n      dup1\n      0xc72c4d10\n      eq\n      tag_7\n      jumpi\n      dup1\n      0xee872558\n      eq\n      tag_8\n      jumpi\n      dup1\n      0xf2fde38b\n      eq\n      tag_9\n      jumpi\n      jump(tag_2)\n    tag_10:\n      dup1\n      0x1b89b61a\n      eq\n      tag_3\n      jumpi\n      dup1\n      0x51cff8d9\n      eq\n      tag_4\n      jumpi\n      dup1\n      0x715018a6\n      eq\n      tag_5\n      jumpi\n      jump(tag_2)\n    tag_1:\n      jumpi(tag_2, calldatasize)\n      stop\n    tag_2:\n      0x00\n      dup1\n      revert\n        /* \"contracts/Kyber-Jarvis.sol\":1445:2176  function flashloan() public onlyOwner {\r... */\n    tag_3:\n      callvalue\n      dup1\n      iszero\n      tag_13\n      jumpi\n      0x00\n      dup1\n      revert\n    tag_13:\n      pop\n      tag_14\n      tag_15\n      jump\t// in\n    tag_14:\n      stop\n        /* \"https://github.com/aave/flashloan-box/blob/master/contracts/utils/Withdrawable.sol\":1040:1583  function withdraw(address _assetAddress) public onlyOwner {... */\n    tag_4:\n      callvalue\n      dup1\n      iszero\n      tag_16\n      jumpi\n      0x00\n      dup1\n      revert\n    tag_16:\n      pop\n      tag_17\n      0x04\n      dup1\n      calldatasize\n      sub\n      0x20\n      dup2\n      lt\n      iszero\n      tag_18\n      jumpi\n      0x00\n      dup1\n      revert\n    tag_18:\n      dup2\n      add\n      swap1\n      dup1\n      dup1\n      calldataload\n      0xffffffffffffffffffffffffffffffffffffffff\n      and\n      swap1\n      0x20\n      add\n      swap1\n      swap3\n      swap2\n      swap1\n      pop\n      pop\n      pop\n      tag_19\n      jump\t// in\n    tag_17:\n      stop\n        /* \"https://github.com/OpenZeppelin/openzeppelin-contracts/blob/solc-0.6/contracts/access/Ownable.sol\":1717:1862  function renounceOwnership() public virtual onlyOwner {... */\n    tag_5:\n      callvalue\n      dup1\n      iszero\n      tag_20\n      jumpi\n      0x00\n      dup1\n      revert\n    tag_20:\n      pop\n      tag_21\n      tag_22\n      jump\t// in\n    tag_21:\n      stop\n        /* \"https://github.com/OpenZeppelin/openzeppelin-contracts/blob/solc-0.6/contracts/access/Ownable.sol\":1085:1170  function owner() public view virtual returns (address) {... */\n    tag_6:\n      callvalue\n      dup1\n      iszero\n      tag_23\n      jumpi\n      0x00\n      dup1\n      revert\n    tag_23:\n      pop\n      tag_24\n      tag_25\n      jump\t// in\n    tag_24:\n      mload(0x40)\n      dup1\n      dup3\n      0xffffffffffffffffffffffffffffffffffffffff\n      and\n      dup2\n      mstore\n      0x20\n      add\n      swap2\n      pop\n      pop\n      mload(0x40)\n      dup1\n      swap2\n      sub\n      swap1\n      return\n        /* \"https://github.com/aave/flashloan-box/blob/master/contracts/aave/FlashLoanReceiverBase.sol\":910:964  ILendingPoolAddressesProvider public addressesProvider */\n    tag_7:\n      callvalue\n      dup1\n      iszero\n      tag_26\n      jumpi\n      0x00\n      dup1\n      revert\n    tag_26:\n      pop\n      tag_27\n      tag_28\n      jump\t// in\n    tag_27:\n      mload(0x40)\n      dup1\n      dup3\n      0xffffffffffffffffffffffffffffffffffffffff\n      and\n      dup2\n      mstore\n      0x20\n      add\n      swap2\n      pop\n      pop\n      mload(0x40)\n      dup1\n      swap2\n      sub\n      swap1\n      return\n        /* \"contracts/Kyber-Jarvis.sol\":737:1321  function executeOperation(\r... */\n    tag_8:\n      callvalue\n      dup1\n      iszero\n      tag_29\n      jumpi\n      0x00\n      dup1\n      revert\n    tag_29:\n      pop\n      tag_30\n      0x04\n      dup1\n      calldatasize\n      sub\n      0x80\n      dup2\n      lt\n      iszero\n      tag_31\n      jumpi\n      0x00\n      dup1\n      revert\n    tag_31:\n      dup2\n      add\n      swap1\n      dup1\n      dup1\n      calldataload\n      0xffffffffffffffffffffffffffffffffffffffff\n      and\n      swap1\n      0x20\n      add\n      swap1\n      swap3\n      swap2\n      swap1\n      dup1\n      calldataload\n      swap1\n      0x20\n      add\n      swap1\n      swap3\n      swap2\n      swap1\n      dup1\n      calldataload\n      swap1\n      0x20\n      add\n      swap1\n      swap3\n      swap2\n      swap1\n      dup1\n      calldataload\n      swap1\n      0x20\n      add\n      swap1\n      0x0100000000\n      dup2\n      gt\n      iszero\n      tag_32\n      jumpi\n      0x00\n      dup1\n      revert\n    tag_32:\n      dup3\n      add\n      dup4\n      0x20\n      dup3\n      add\n      gt\n      iszero\n      tag_33\n      jumpi\n      0x00\n      dup1\n      revert\n    tag_33:\n      dup1\n      calldataload\n      swap1\n      0x20\n      add\n      swap2\n      dup5\n      0x01\n      dup4\n      mul\n      dup5\n      add\n      gt\n      0x0100000000\n      dup4\n      gt\n      or\n      iszero\n      tag_34\n      jumpi\n      0x00\n      dup1\n      revert\n    tag_34:\n      swap1\n      swap2\n      swap3\n      swap4\n      swap2\n      swap3\n      swap4\n      swap1\n      pop\n      pop\n      pop\n      tag_35\n      jump\t// in\n    tag_30:\n      stop\n        /* \"https://github.com/OpenZeppelin/openzeppelin-contracts/blob/solc-0.6/contracts/access/Ownable.sol\":2011:2251  function transferOwnership(address newOwner) public virtual onlyOwner {... */\n    tag_9:\n      callvalue\n      dup1\n      iszero\n      tag_36\n      jumpi\n      0x00\n      dup1\n      revert\n    tag_36:\n      pop\n      tag_37\n      0x04\n      dup1\n      calldatasize\n      sub\n      0x20\n      dup2\n      lt\n      iszero\n      tag_38\n      jumpi\n      0x00\n      dup1\n      revert\n    tag_38:\n      dup2\n      add\n      swap1\n      dup1\n      dup1\n      calldataload\n      0xffffffffffffffffffffffffffffffffffffffff\n      and\n      swap1\n      0x20\n      add\n      swap1\n      swap3\n      swap2\n      swap1\n      pop\n      pop\n      pop\n      tag_39\n      jump\t// in\n    tag_37:\n      stop\n        /* \"contracts/Kyber-Jarvis.sol\":1445:2176  function flashloan() public onlyOwner {\r... */\n    tag_15:\n        /* \"https://github.com/OpenZeppelin/openzeppelin-contracts/blob/solc-0.6/contracts/access/Ownable.sol\":1308:1320  _msgSender() */\n      tag_41\n        /* \"https://github.com/OpenZeppelin/openzeppelin-contracts/blob/solc-0.6/contracts/access/Ownable.sol\":1308:1318  _msgSender */\n      tag_42\n        /* \"https://github.com/OpenZeppelin/openzeppelin-contracts/blob/solc-0.6/contracts/access/Ownable.sol\":1308:1320  _msgSender() */\n      jump\t// in\n    tag_41:\n        /* \"https://github.com/OpenZeppelin/openzeppelin-contracts/blob/solc-0.6/contracts/access/Ownable.sol\":1297:1320  owner() == _msgSender() */\n      0xffffffffffffffffffffffffffffffffffffffff\n      and\n        /* \"https://github.com/OpenZeppelin/openzeppelin-contracts/blob/solc-0.6/contracts/access/Ownable.sol\":1297:1304  owner() */\n      tag_43\n        /* \"https://github.com/OpenZeppelin/openzeppelin-contracts/blob/solc-0.6/contracts/access/Ownable.sol\":1297:1302  owner */\n      tag_25\n        /* \"https://github.com/OpenZeppelin/openzeppelin-contracts/blob/solc-0.6/contracts/access/Ownable.sol\":1297:1304  owner() */\n      jump\t// in\n    tag_43:\n        /* \"https://github.com/OpenZeppelin/openzeppelin-contracts/blob/solc-0.6/contracts/access/Ownable.sol\":1297:1320  owner() == _msgSender() */\n      0xffffffffffffffffffffffffffffffffffffffff\n      and\n      eq\n        /* \"https://github.com/OpenZeppelin/openzeppelin-contracts/blob/solc-0.6/contracts/access/Ownable.sol\":1289:1357  require(owner() == _msgSender(), \"Ownable: caller is not the owner\") */\n      tag_44\n      jumpi\n      mload(0x40)\n      0x08c379a000000000000000000000000000000000000000000000000000000000\n      dup2\n      mstore\n      0x04\n      add\n      dup1\n      dup1\n      0x20\n      add\n      dup3\n      dup2\n      sub\n      dup3\n      mstore\n      0x20\n      dup2\n      mstore\n      0x20\n      add\n      dup1\n      0x4f776e61626c653a2063616c6c6572206973206e6f7420746865206f776e6572\n      dup2\n      mstore\n      pop\n      0x20\n      add\n      swap2\n      pop\n      pop\n      mload(0x40)\n      dup1\n      swap2\n      sub\n      swap1\n      revert\n    tag_44:\n        /* \"contracts/Kyber-Jarvis.sol\":1553:1569  address receiver */\n      0x00\n        /* \"contracts/Kyber-Jarvis.sol\":1580:1584  this */\n      address\n        /* \"contracts/Kyber-Jarvis.sol\":1553:1585  address receiver = address(this) */\n      swap1\n      pop\n        /* \"contracts/Kyber-Jarvis.sol\":1631:1644  address asset */\n      0x00\n        /* \"contracts/Kyber-Jarvis.sol\":1647:1689  0x6B175474E89094C44Da98b954EedeAC495271d0F */\n      0x6b175474e89094c44da98b954eedeac495271d0f\n        /* \"contracts/Kyber-Jarvis.sol\":1631:1689  address asset = 0x6B175474E89094C44Da98b954EedeAC495271d0F */\n      swap1\n      pop\n        /* \"contracts/Kyber-Jarvis.sol\":1707:1721  uint256 amount */\n      0x00\n        /* \"contracts/Kyber-Jarvis.sol\":1724:1735  1000 * 1e18 */\n      0x3635c9adc5dea00000\n        /* \"contracts/Kyber-Jarvis.sol\":1707:1735  uint256 amount = 1000 * 1e18 */\n      swap1\n      pop\n        /* \"contracts/Kyber-Jarvis.sol\":1814:1833  bytes memory params */\n      0x60\n        /* \"contracts/Kyber-Jarvis.sol\":1814:1838  bytes memory params = \"\" */\n      mload(0x40)\n      dup1\n      0x20\n      add\n      0x40\n      mstore\n      dup1\n      0x00\n      dup2\n      mstore\n      pop\n      swap1\n      pop\n        /* \"contracts/Kyber-Jarvis.sol\":2023:2047  ILendingPool lendingPool */\n      0x00\n        /* \"contracts/Kyber-Jarvis.sol\":2063:2080  addressesProvider */\n      0x01\n      0x00\n      swap1\n      sload\n      swap1\n      0x0100\n      exp\n      swap1\n      div\n      0xffffffffffffffffffffffffffffffffffffffff\n      and\n        /* \"contracts/Kyber-Jarvis.sol\":2063:2095  addressesProvider.getLendingPool */\n      0xffffffffffffffffffffffffffffffffffffffff\n      and\n      0x0261bf8b\n        /* \"contracts/Kyber-Jarvis.sol\":2063:2097  addressesProvider.getLendingPool() */\n      mload(0x40)\n      dup2\n      0xffffffff\n      and\n      0xe0\n      shl\n      dup2\n      mstore\n      0x04\n      add\n      0x20\n      mload(0x40)\n      dup1\n      dup4\n      sub\n      dup2\n      dup7\n      dup1\n      extcodesize\n      iszero\n      dup1\n      iszero\n      tag_46\n      jumpi\n      0x00\n      dup1\n      revert\n    tag_46:\n      pop\n      gas\n      staticcall\n      iszero\n      dup1\n      iszero\n      tag_48\n      jumpi\n      returndatasize\n      0x00\n      dup1\n      returndatacopy\n      revert(0x00, returndatasize)\n    tag_48:\n      pop\n      pop\n      pop\n      pop\n      mload(0x40)\n      returndatasize\n      0x20\n      dup2\n      lt\n      iszero\n      tag_49\n      jumpi\n      0x00\n      dup1\n      revert\n    tag_49:\n      dup2\n      add\n      swap1\n      dup1\n      dup1\n      mload\n      swap1\n      0x20\n      add\n      swap1\n      swap3\n      swap2\n      swap1\n      pop\n      pop\n      pop\n        /* \"contracts/Kyber-Jarvis.sol\":2023:2098  ILendingPool lendingPool = ILendingPool(addressesProvider.getLendingPool()) */\n      swap1\n      pop\n        /* \"contracts/Kyber-Jarvis.sol\":2109:2120  lendingPool */\n      dup1\n        /* \"contracts/Kyber-Jarvis.sol\":2109:2130  lendingPool.flashLoan */\n      0xffffffffffffffffffffffffffffffffffffffff\n      and\n      0x5cffe9de\n        /* \"contracts/Kyber-Jarvis.sol\":2139:2143  this */\n      address\n        /* \"contracts/Kyber-Jarvis.sol\":2146:2151  asset */\n      dup7\n        /* \"contracts/Kyber-Jarvis.sol\":2153:2159  amount */\n      dup7\n        /* \"contracts/Kyber-Jarvis.sol\":2161:2167  params */\n      dup7\n        /* \"contracts/Kyber-Jarvis.sol\":2109:2168  lendingPool.flashLoan(address(this), asset, amount, params) */\n      mload(0x40)\n      dup6\n      0xffffffff\n      and\n      0xe0\n      shl\n      dup2\n      mstore\n      0x04\n      add\n      dup1\n      dup6\n      0xffffffffffffffffffffffffffffffffffffffff\n      and\n      dup2\n      mstore\n      0x20\n      add\n      dup5\n      0xffffffffffffffffffffffffffffffffffffffff\n      and\n      dup2\n      mstore\n      0x20\n      add\n      dup4\n      dup2\n      mstore\n      0x20\n      add\n      dup1\n      0x20\n      add\n      dup3\n      dup2\n      sub\n      dup3\n      mstore\n      dup4\n      dup2\n      dup2\n      mload\n      dup2\n      mstore\n      0x20\n      add\n      swap2\n      pop\n      dup1\n      mload\n      swap1\n      0x20\n      add\n      swap1\n      dup1\n      dup4\n      dup4\n      0x00\n    tag_50:\n      dup4\n      dup2\n      lt\n      iszero\n      tag_52\n      jumpi\n      dup1\n      dup3\n      add\n      mload\n      dup2\n      dup5\n      add\n      mstore\n      0x20\n      dup2\n      add\n      swap1\n      pop\n      jump(tag_50)\n    tag_52:\n      pop\n      pop\n      pop\n      pop\n      swap1\n      pop\n      swap1\n      dup2\n      add\n      swap1\n      0x1f\n      and\n      dup1\n      iszero\n      tag_53\n      jumpi\n      dup1\n      dup3\n      sub\n      dup1\n      mload\n      0x01\n      dup4\n      0x20\n      sub\n      0x0100\n      exp\n      sub\n      not\n      and\n      dup2\n      mstore\n      0x20\n      add\n      swap2\n      pop\n    tag_53:\n      pop\n      swap6\n      pop\n      pop\n      pop\n      pop\n      pop\n      pop\n      0x00\n      mload(0x40)\n      dup1\n      dup4\n      sub\n      dup2\n      0x00\n      dup8\n      dup1\n      extcodesize\n      iszero\n      dup1\n      iszero\n      tag_54\n      jumpi\n      0x00\n      dup1\n      revert\n    tag_54:\n      pop\n      gas\n      call\n      iszero\n      dup1\n      iszero\n      tag_56\n      jumpi\n      returndatasize\n      0x00\n      dup1\n      returndatacopy\n      revert(0x00, returndatasize)\n    tag_56:\n      pop\n      pop\n      pop\n      pop\n        /* \"https://github.com/OpenZeppelin/openzeppelin-contracts/blob/solc-0.6/contracts/access/Ownable.sol\":1367:1368  _ */\n      pop\n      pop\n      pop\n      pop\n      pop\n        /* \"contracts/Kyber-Jarvis.sol\":1445:2176  function flashloan() public onlyOwner {\r... */\n      jump\t// out\n        /* \"https://github.com/aave/flashloan-box/blob/master/contracts/utils/Withdrawable.sol\":1040:1583  function withdraw(address _assetAddress) public onlyOwner {... */\n    tag_19:\n        /* \"https://github.com/OpenZeppelin/openzeppelin-contracts/blob/solc-0.6/contracts/access/Ownable.sol\":1308:1320  _msgSender() */\n      tag_58\n        /* \"https://github.com/OpenZeppelin/openzeppelin-contracts/blob/solc-0.6/contracts/access/Ownable.sol\":1308:1318  _msgSender */\n      tag_42\n        /* \"https://github.com/OpenZeppelin/openzeppelin-contracts/blob/solc-0.6/contracts/access/Ownable.sol\":1308:1320  _msgSender() */\n      jump\t// in\n    tag_58:\n        /* \"https://github.com/OpenZeppelin/openzeppelin-contracts/blob/solc-0.6/contracts/access/Ownable.sol\":1297:1320  owner() == _msgSender() */\n      0xffffffffffffffffffffffffffffffffffffffff\n      and\n        /* \"https://github.com/OpenZeppelin/openzeppelin-contracts/blob/solc-0.6/contracts/access/Ownable.sol\":1297:1304  owner() */\n      tag_59\n        /* \"https://github.com/OpenZeppelin/openzeppelin-contracts/blob/solc-0.6/contracts/access/Ownable.sol\":1297:1302  owner */\n      tag_25\n        /* \"https://github.com/OpenZeppelin/openzeppelin-contracts/blob/solc-0.6/contracts/access/Ownable.sol\":1297:1304  owner() */\n      jump\t// in\n    tag_59:\n        /* \"https://github.com/OpenZeppelin/openzeppelin-contracts/blob/solc-0.6/contracts/access/Ownable.sol\":1297:1320  owner() == _msgSender() */\n      0xffffffffffffffffffffffffffffffffffffffff\n      and\n      eq\n        /* \"https://github.com/OpenZeppelin/openzeppelin-contracts/blob/solc-0.6/contracts/access/Ownable.sol\":1289:1357  require(owner() == _msgSender(), \"Ownable: caller is not the owner\") */\n      tag_60\n      jumpi\n      mload(0x40)\n      0x08c379a000000000000000000000000000000000000000000000000000000000\n      dup2\n      mstore\n      0x04\n      add\n      dup1\n      dup1\n      0x20\n      add\n      dup3\n      dup2\n      sub\n      dup3\n      mstore\n      0x20\n      dup2\n      mstore\n      0x20\n      add\n      dup1\n      0x4f776e61626c653a2063616c6c6572206973206e6f7420746865206f776e6572\n      dup2\n      mstore\n      pop\n      0x20\n      add\n      swap2\n      pop\n      pop\n      mload(0x40)\n      dup1\n      swap2\n      sub\n      swap1\n      revert\n    tag_60:\n        /* \"https://github.com/aave/flashloan-box/blob/master/contracts/utils/Withdrawable.sol\":1108:1125  uint assetBalance */\n      0x00\n        /* \"https://github.com/aave/flashloan-box/blob/master/contracts/utils/Withdrawable.sol\":815:816  0 */\n      dup1\n        /* \"https://github.com/aave/flashloan-box/blob/master/contracts/utils/Withdrawable.sol\":1139:1161  _assetAddress == ETHER */\n      0xffffffffffffffffffffffffffffffffffffffff\n      and\n        /* \"https://github.com/aave/flashloan-box/blob/master/contracts/utils/Withdrawable.sol\":1139:1152  _assetAddress */\n      dup3\n        /* \"https://github.com/aave/flashloan-box/blob/master/contracts/utils/Withdrawable.sol\":1139:1161  _assetAddress == ETHER */\n      0xffffffffffffffffffffffffffffffffffffffff\n      and\n      eq\n        /* \"https://github.com/aave/flashloan-box/blob/master/contracts/utils/Withdrawable.sol\":1135:1510  if (_assetAddress == ETHER) {... */\n      iszero\n      tag_62\n      jumpi\n        /* \"https://github.com/aave/flashloan-box/blob/master/contracts/utils/Withdrawable.sol\":1177:1189  address self */\n      0x00\n        /* \"https://github.com/aave/flashloan-box/blob/master/contracts/utils/Withdrawable.sol\":1200:1204  this */\n      address\n        /* \"https://github.com/aave/flashloan-box/blob/master/contracts/utils/Withdrawable.sol\":1177:1205  address self = address(this) */\n      swap1\n      pop\n        /* \"https://github.com/aave/flashloan-box/blob/master/contracts/utils/Withdrawable.sol\":1276:1280  self */\n      dup1\n        /* \"https://github.com/aave/flashloan-box/blob/master/contracts/utils/Withdrawable.sol\":1276:1288  self.balance */\n      0xffffffffffffffffffffffffffffffffffffffff\n      and\n      balance\n        /* \"https://github.com/aave/flashloan-box/blob/master/contracts/utils/Withdrawable.sol\":1261:1288  assetBalance = self.balance */\n      swap2\n      pop\n        /* \"https://github.com/aave/flashloan-box/blob/master/contracts/utils/Withdrawable.sol\":1302:1312  msg.sender */\n      caller\n        /* \"https://github.com/aave/flashloan-box/blob/master/contracts/utils/Withdrawable.sol\":1302:1321  msg.sender.transfer */\n      0xffffffffffffffffffffffffffffffffffffffff\n      and\n        /* \"https://github.com/aave/flashloan-box/blob/master/contracts/utils/Withdrawable.sol\":1302:1335  msg.sender.transfer(assetBalance) */\n      0x08fc\n        /* \"https://github.com/aave/flashloan-box/blob/master/contracts/utils/Withdrawable.sol\":1322:1334  assetBalance */\n      dup4\n        /* \"https://github.com/aave/flashloan-box/blob/master/contracts/utils/Withdrawable.sol\":1302:1335  msg.sender.transfer(assetBalance) */\n      swap1\n      dup2\n      iszero\n      mul\n      swap1\n      mload(0x40)\n      0x00\n      mload(0x40)\n      dup1\n      dup4\n      sub\n      dup2\n      dup6\n      dup9\n      dup9\n      call\n      swap4\n      pop\n      pop\n      pop\n      pop\n      iszero\n      dup1\n      iszero\n      tag_64\n      jumpi\n      returndatasize\n      0x00\n      dup1\n      returndatacopy\n      revert(0x00, returndatasize)\n    tag_64:\n      pop\n        /* \"https://github.com/aave/flashloan-box/blob/master/contracts/utils/Withdrawable.sol\":1135:1510  if (_assetAddress == ETHER) {... */\n      pop\n      jump(tag_65)\n    tag_62:\n        /* \"https://github.com/aave/flashloan-box/blob/master/contracts/utils/Withdrawable.sol\":1387:1400  _assetAddress */\n      dup2\n        /* \"https://github.com/aave/flashloan-box/blob/master/contracts/utils/Withdrawable.sol\":1381:1411  ERC20(_assetAddress).balanceOf */\n      0xffffffffffffffffffffffffffffffffffffffff\n      and\n      0x70a08231\n        /* \"https://github.com/aave/flashloan-box/blob/master/contracts/utils/Withdrawable.sol\":1420:1424  this */\n      address\n        /* \"https://github.com/aave/flashloan-box/blob/master/contracts/utils/Withdrawable.sol\":1381:1426  ERC20(_assetAddress).balanceOf(address(this)) */\n      mload(0x40)\n      dup3\n      0xffffffff\n      and\n      0xe0\n      shl\n      dup2\n      mstore\n      0x04\n      add\n      dup1\n      dup3\n      0xffffffffffffffffffffffffffffffffffffffff\n      and\n      dup2\n      mstore\n      0x20\n      add\n      swap2\n      pop\n      pop\n      0x20\n      mload(0x40)\n      dup1\n      dup4\n      sub\n      dup2\n      dup7\n      dup1\n      extcodesize\n      iszero\n      dup1\n      iszero\n      tag_66\n      jumpi\n      0x00\n      dup1\n      revert\n    tag_66:\n      pop\n      gas\n      staticcall\n      iszero\n      dup1\n      iszero\n      tag_68\n      jumpi\n      returndatasize\n      0x00\n      dup1\n      returndatacopy\n      revert(0x00, returndatasize)\n    tag_68:\n      pop\n      pop\n      pop\n      pop\n      mload(0x40)\n      returndatasize\n      0x20\n      dup2\n      lt\n      iszero\n      tag_69\n      jumpi\n      0x00\n      dup1\n      revert\n    tag_69:\n      dup2\n      add\n      swap1\n      dup1\n      dup1\n      mload\n      swap1\n      0x20\n      add\n      swap1\n      swap3\n      swap2\n      swap1\n      pop\n      pop\n      pop\n        /* \"https://github.com/aave/flashloan-box/blob/master/contracts/utils/Withdrawable.sol\":1366:1426  assetBalance = ERC20(_assetAddress).balanceOf(address(this)) */\n      swap1\n      pop\n        /* \"https://github.com/aave/flashloan-box/blob/master/contracts/utils/Withdrawable.sol\":1440:1499  ERC20(_assetAddress).safeTransfer(msg.sender, assetBalance) */\n      tag_70\n        /* \"https://github.com/aave/flashloan-box/blob/master/contracts/utils/Withdrawable.sol\":1474:1484  msg.sender */\n      caller\n        /* \"https://github.com/aave/flashloan-box/blob/master/contracts/utils/Withdrawable.sol\":1486:1498  assetBalance */\n      dup3\n        /* \"https://github.com/aave/flashloan-box/blob/master/contracts/utils/Withdrawable.sol\":1446:1459  _assetAddress */\n      dup5\n        /* \"https://github.com/aave/flashloan-box/blob/master/contracts/utils/Withdrawable.sol\":1440:1473  ERC20(_assetAddress).safeTransfer */\n      0xffffffffffffffffffffffffffffffffffffffff\n      and\n      tag_71\n      swap1\n        /* \"https://github.com/aave/flashloan-box/blob/master/contracts/utils/Withdrawable.sol\":1440:1499  ERC20(_assetAddress).safeTransfer(msg.sender, assetBalance) */\n      swap3\n      swap2\n      swap1\n      0xffffffff\n      and\n      jump\t// in\n    tag_70:\n        /* \"https://github.com/aave/flashloan-box/blob/master/contracts/utils/Withdrawable.sol\":1135:1510  if (_assetAddress == ETHER) {... */\n    tag_65:\n        /* \"https://github.com/aave/flashloan-box/blob/master/contracts/utils/Withdrawable.sol\":1548:1561  _assetAddress */\n      dup2\n        /* \"https://github.com/aave/flashloan-box/blob/master/contracts/utils/Withdrawable.sol\":1524:1576  LogWithdraw(msg.sender, _assetAddress, assetBalance) */\n      0xffffffffffffffffffffffffffffffffffffffff\n      and\n        /* \"https://github.com/aave/flashloan-box/blob/master/contracts/utils/Withdrawable.sol\":1536:1546  msg.sender */\n      caller\n        /* \"https://github.com/aave/flashloan-box/blob/master/contracts/utils/Withdrawable.sol\":1524:1576  LogWithdraw(msg.sender, _assetAddress, assetBalance) */\n      0xffffffffffffffffffffffffffffffffffffffff\n      and\n      0x9207361cc2a04b9c7a06691df1eb87c6a63957ae88bf01d0d18c81e3d1272099\n        /* \"https://github.com/aave/flashloan-box/blob/master/contracts/utils/Withdrawable.sol\":1563:1575  assetBalance */\n      dup4\n        /* \"https://github.com/aave/flashloan-box/blob/master/contracts/utils/Withdrawable.sol\":1524:1576  LogWithdraw(msg.sender, _assetAddress, assetBalance) */\n      mload(0x40)\n      dup1\n      dup3\n      dup2\n      mstore\n      0x20\n      add\n      swap2\n      pop\n      pop\n      mload(0x40)\n      dup1\n      swap2\n      sub\n      swap1\n      log3\n        /* \"https://github.com/OpenZeppelin/openzeppelin-contracts/blob/solc-0.6/contracts/access/Ownable.sol\":1367:1368  _ */\n      pop\n        /* \"https://github.com/aave/flashloan-box/blob/master/contracts/utils/Withdrawable.sol\":1040:1583  function withdraw(address _assetAddress) public onlyOwner {... */\n      pop\n      jump\t// out\n        /* \"https://github.com/OpenZeppelin/openzeppelin-contracts/blob/solc-0.6/contracts/access/Ownable.sol\":1717:1862  function renounceOwnership() public virtual onlyOwner {... */\n    tag_22:\n        /* \"https://github.com/OpenZeppelin/openzeppelin-contracts/blob/solc-0.6/contracts/access/Ownable.sol\":1308:1320  _msgSender() */\n      tag_73\n        /* \"https://github.com/OpenZeppelin/openzeppelin-contracts/blob/solc-0.6/contracts/access/Ownable.sol\":1308:1318  _msgSender */\n      tag_42\n        /* \"https://github.com/OpenZeppelin/openzeppelin-contracts/blob/solc-0.6/contracts/access/Ownable.sol\":1308:1320  _msgSender() */\n      jump\t// in\n    tag_73:\n        /* \"https://github.com/OpenZeppelin/openzeppelin-contracts/blob/solc-0.6/contracts/access/Ownable.sol\":1297:1320  owner() == _msgSender() */\n      0xffffffffffffffffffffffffffffffffffffffff\n      and\n        /* \"https://github.com/OpenZeppelin/openzeppelin-contracts/blob/solc-0.6/contracts/access/Ownable.sol\":1297:1304  owner() */\n      tag_74\n        /* \"https://github.com/OpenZeppelin/openzeppelin-contracts/blob/solc-0.6/contracts/access/Ownable.sol\":1297:1302  owner */\n      tag_25\n        /* \"https://github.com/OpenZeppelin/openzeppelin-contracts/blob/solc-0.6/contracts/access/Ownable.sol\":1297:1304  owner() */\n      jump\t// in\n    tag_74:\n        /* \"https://github.com/OpenZeppelin/openzeppelin-contracts/blob/solc-0.6/contracts/access/Ownable.sol\":1297:1320  owner() == _msgSender() */\n      0xffffffffffffffffffffffffffffffffffffffff\n      and\n      eq\n        /* \"https://github.com/OpenZeppelin/openzeppelin-contracts/blob/solc-0.6/contracts/access/Ownable.sol\":1289:1357  require(owner() == _msgSender(), \"Ownable: caller is not the owner\") */\n      tag_75\n      jumpi\n      mload(0x40)\n      0x08c379a000000000000000000000000000000000000000000000000000000000\n      dup2\n      mstore\n      0x04\n      add\n      dup1\n      dup1\n      0x20\n      add\n      dup3\n      dup2\n      sub\n      dup3\n      mstore\n      0x20\n      dup2\n      mstore\n      0x20\n      add\n      dup1\n      0x4f776e61626c653a2063616c6c6572206973206e6f7420746865206f776e6572\n      dup2\n      mstore\n      pop\n      0x20\n      add\n      swap2\n      pop\n      pop\n      mload(0x40)\n      dup1\n      swap2\n      sub\n      swap1\n      revert\n    tag_75:\n        /* \"https://github.com/OpenZeppelin/openzeppelin-contracts/blob/solc-0.6/contracts/access/Ownable.sol\":1823:1824  0 */\n      0x00\n        /* \"https://github.com/OpenZeppelin/openzeppelin-contracts/blob/solc-0.6/contracts/access/Ownable.sol\":1786:1826  OwnershipTransferred(_owner, address(0)) */\n      0xffffffffffffffffffffffffffffffffffffffff\n      and\n        /* \"https://github.com/OpenZeppelin/openzeppelin-contracts/blob/solc-0.6/contracts/access/Ownable.sol\":1807:1813  _owner */\n      0x00\n      dup1\n      sload\n      swap1\n      0x0100\n      exp\n      swap1\n      div\n      0xffffffffffffffffffffffffffffffffffffffff\n      and\n        /* \"https://github.com/OpenZeppelin/openzeppelin-contracts/blob/solc-0.6/contracts/access/Ownable.sol\":1786:1826  OwnershipTransferred(_owner, address(0)) */\n      0xffffffffffffffffffffffffffffffffffffffff\n      and\n      0x8be0079c531659141344cd1fd0a4f28419497f9722a3daafe3b4186f6b6457e0\n      mload(0x40)\n      mload(0x40)\n      dup1\n      swap2\n      sub\n      swap1\n      log3\n        /* \"https://github.com/OpenZeppelin/openzeppelin-contracts/blob/solc-0.6/contracts/access/Ownable.sol\":1853:1854  0 */\n      0x00\n        /* \"https://github.com/OpenZeppelin/openzeppelin-contracts/blob/solc-0.6/contracts/access/Ownable.sol\":1836:1842  _owner */\n      dup1\n      0x00\n        /* \"https://github.com/OpenZeppelin/openzeppelin-contracts/blob/solc-0.6/contracts/access/Ownable.sol\":1836:1855  _owner = address(0) */\n      0x0100\n      exp\n      dup2\n      sload\n      dup2\n      0xffffffffffffffffffffffffffffffffffffffff\n      mul\n      not\n      and\n      swap1\n      dup4\n      0xffffffffffffffffffffffffffffffffffffffff\n      and\n      mul\n      or\n      swap1\n      sstore\n      pop\n        /* \"https://github.com/OpenZeppelin/openzeppelin-contracts/blob/solc-0.6/contracts/access/Ownable.sol\":1717:1862  function renounceOwnership() public virtual onlyOwner {... */\n      jump\t// out\n        /* \"https://github.com/OpenZeppelin/openzeppelin-contracts/blob/solc-0.6/contracts/access/Ownable.sol\":1085:1170  function owner() public view virtual returns (address) {... */\n    tag_25:\n        /* \"https://github.com/OpenZeppelin/openzeppelin-contracts/blob/solc-0.6/contracts/access/Ownable.sol\":1131:1138  address */\n      0x00\n        /* \"https://github.com/OpenZeppelin/openzeppelin-contracts/blob/solc-0.6/contracts/access/Ownable.sol\":1157:1163  _owner */\n      dup1\n      0x00\n      swap1\n      sload\n      swap1\n      0x0100\n      exp\n      swap1\n      div\n      0xffffffffffffffffffffffffffffffffffffffff\n      and\n        /* \"https://github.com/OpenZeppelin/openzeppelin-contracts/blob/solc-0.6/contracts/access/Ownable.sol\":1150:1163  return _owner */\n      swap1\n      pop\n        /* \"https://github.com/OpenZeppelin/openzeppelin-contracts/blob/solc-0.6/contracts/access/Ownable.sol\":1085:1170  function owner() public view virtual returns (address) {... */\n      swap1\n      jump\t// out\n        /* \"https://github.com/aave/flashloan-box/blob/master/contracts/aave/FlashLoanReceiverBase.sol\":910:964  ILendingPoolAddressesProvider public addressesProvider */\n    tag_28:\n      0x01\n      0x00\n      swap1\n      sload\n      swap1\n      0x0100\n      exp\n      swap1\n      div\n      0xffffffffffffffffffffffffffffffffffffffff\n      and\n      dup2\n      jump\t// out\n        /* \"contracts/Kyber-Jarvis.sol\":737:1321  function executeOperation(\r... */\n    tag_35:\n        /* \"contracts/Kyber-Jarvis.sol\":950:993  getBalanceInternal(address(this), _reserve) */\n      tag_79\n        /* \"contracts/Kyber-Jarvis.sol\":977:981  this */\n      address\n        /* \"contracts/Kyber-Jarvis.sol\":984:992  _reserve */\n      dup7\n        /* \"contracts/Kyber-Jarvis.sol\":950:968  getBalanceInternal */\n      tag_80\n        /* \"contracts/Kyber-Jarvis.sol\":950:993  getBalanceInternal(address(this), _reserve) */\n      jump\t// in\n    tag_79:\n        /* \"contracts/Kyber-Jarvis.sol\":939:946  _amount */\n      dup5\n        /* \"contracts/Kyber-Jarvis.sol\":939:993  _amount <= getBalanceInternal(address(this), _reserve) */\n      gt\n      iszero\n        /* \"contracts/Kyber-Jarvis.sol\":931:1044  require(_amount <= getBalanceInternal(address(this), _reserve), \"Invalid balance, was the flashLoan successful?\") */\n      tag_81\n      jumpi\n      mload(0x40)\n      0x08c379a000000000000000000000000000000000000000000000000000000000\n      dup2\n      mstore\n      0x04\n      add\n      dup1\n      dup1\n      0x20\n      add\n      dup3\n      dup2\n      sub\n      dup3\n      mstore\n      0x2e\n      dup2\n      mstore\n      0x20\n      add\n      dup1\n      data_8fe07d1a7bc8ed40574aa57beae4fbd43367cc89459755c316997d76d102b27d\n      0x2e\n      swap2\n      codecopy\n      0x40\n      add\n      swap2\n      pop\n      pop\n      mload(0x40)\n      dup1\n      swap2\n      sub\n      swap1\n      revert\n    tag_81:\n        /* \"contracts/Kyber-Jarvis.sol\":1216:1230  uint totalDebt */\n      0x00\n        /* \"contracts/Kyber-Jarvis.sol\":1233:1250  _amount.add(_fee) */\n      tag_82\n        /* \"contracts/Kyber-Jarvis.sol\":1245:1249  _fee */\n      dup5\n        /* \"contracts/Kyber-Jarvis.sol\":1233:1240  _amount */\n      dup7\n        /* \"contracts/Kyber-Jarvis.sol\":1233:1244  _amount.add */\n      tag_83\n      swap1\n        /* \"contracts/Kyber-Jarvis.sol\":1233:1250  _amount.add(_fee) */\n      swap2\n      swap1\n      0xffffffff\n      and\n      jump\t// in\n    tag_82:\n        /* \"contracts/Kyber-Jarvis.sol\":1216:1250  uint totalDebt = _amount.add(_fee) */\n      swap1\n      pop\n        /* \"contracts/Kyber-Jarvis.sol\":1261:1313  transferFundsBackToPoolInternal(_reserve, totalDebt) */\n      tag_84\n        /* \"contracts/Kyber-Jarvis.sol\":1293:1301  _reserve */\n      dup7\n        /* \"contracts/Kyber-Jarvis.sol\":1303:1312  totalDebt */\n      dup3\n        /* \"contracts/Kyber-Jarvis.sol\":1261:1292  transferFundsBackToPoolInternal */\n      tag_85\n        /* \"contracts/Kyber-Jarvis.sol\":1261:1313  transferFundsBackToPoolInternal(_reserve, totalDebt) */\n      jump\t// in\n    tag_84:\n        /* \"contracts/Kyber-Jarvis.sol\":737:1321  function executeOperation(\r... */\n      pop\n      pop\n      pop\n      pop\n      pop\n      pop\n      jump\t// out\n        /* \"https://github.com/OpenZeppelin/openzeppelin-contracts/blob/solc-0.6/contracts/access/Ownable.sol\":2011:2251  function transferOwnership(address newOwner) public virtual onlyOwner {... */\n    tag_39:\n        /* \"https://github.com/OpenZeppelin/openzeppelin-contracts/blob/solc-0.6/contracts/access/Ownable.sol\":1308:1320  _msgSender() */\n      tag_87\n        /* \"https://github.com/OpenZeppelin/openzeppelin-contracts/blob/solc-0.6/contracts/access/Ownable.sol\":1308:1318  _msgSender */\n      tag_42\n        /* \"https://github.com/OpenZeppelin/openzeppelin-contracts/blob/solc-0.6/contracts/access/Ownable.sol\":1308:1320  _msgSender() */\n      jump\t// in\n    tag_87:\n        /* \"https://github.com/OpenZeppelin/openzeppelin-contracts/blob/solc-0.6/contracts/access/Ownable.sol\":1297:1320  owner() == _msgSender() */\n      0xffffffffffffffffffffffffffffffffffffffff\n      and\n        /* \"https://github.com/OpenZeppelin/openzeppelin-contracts/blob/solc-0.6/contracts/access/Ownable.sol\":1297:1304  owner() */\n      tag_88\n        /* \"https://github.com/OpenZeppelin/openzeppelin-contracts/blob/solc-0.6/contracts/access/Ownable.sol\":1297:1302  owner */\n      tag_25\n        /* \"https://github.com/OpenZeppelin/openzeppelin-contracts/blob/solc-0.6/contracts/access/Ownable.sol\":1297:1304  owner() */\n      jump\t// in\n    tag_88:\n        /* \"https://github.com/OpenZeppelin/openzeppelin-contracts/blob/solc-0.6/contracts/access/Ownable.sol\":1297:1320  owner() == _msgSender() */\n      0xffffffffffffffffffffffffffffffffffffffff\n      and\n      eq\n        /* \"https://github.com/OpenZeppelin/openzeppelin-contracts/blob/solc-0.6/contracts/access/Ownable.sol\":1289:1357  require(owner() == _msgSender(), \"Ownable: caller is not the owner\") */\n      tag_89\n      jumpi\n      mload(0x40)\n      0x08c379a000000000000000000000000000000000000000000000000000000000\n      dup2\n      mstore\n      0x04\n      add\n      dup1\n      dup1\n      0x20\n      add\n      dup3\n      dup2\n      sub\n      dup3\n      mstore\n      0x20\n      dup2\n      mstore\n      0x20\n      add\n      dup1\n      0x4f776e61626c653a2063616c6c6572206973206e6f7420746865206f776e6572\n      dup2\n      mstore\n      pop\n      0x20\n      add\n      swap2\n      pop\n      pop\n      mload(0x40)\n      dup1\n      swap2\n      sub\n      swap1\n      revert\n    tag_89:\n        /* \"https://github.com/OpenZeppelin/openzeppelin-contracts/blob/solc-0.6/contracts/access/Ownable.sol\":2119:2120  0 */\n      0x00\n        /* \"https://github.com/OpenZeppelin/openzeppelin-contracts/blob/solc-0.6/contracts/access/Ownable.sol\":2099:2121  newOwner != address(0) */\n      0xffffffffffffffffffffffffffffffffffffffff\n      and\n        /* \"https://github.com/OpenZeppelin/openzeppelin-contracts/blob/solc-0.6/contracts/access/Ownable.sol\":2099:2107  newOwner */\n      dup2\n        /* \"https://github.com/OpenZeppelin/openzeppelin-contracts/blob/solc-0.6/contracts/access/Ownable.sol\":2099:2121  newOwner != address(0) */\n      0xffffffffffffffffffffffffffffffffffffffff\n      and\n      eq\n      iszero\n        /* \"https://github.com/OpenZeppelin/openzeppelin-contracts/blob/solc-0.6/contracts/access/Ownable.sol\":2091:2164  require(newOwner != address(0), \"Ownable: new owner is the zero address\") */\n      tag_91\n      jumpi\n      mload(0x40)\n      0x08c379a000000000000000000000000000000000000000000000000000000000\n      dup2\n      mstore\n      0x04\n      add\n      dup1\n      dup1\n      0x20\n      add\n      dup3\n      dup2\n      sub\n      dup3\n      mstore\n      0x26\n      dup2\n      mstore\n      0x20\n      add\n      dup1\n      data_245f15ff17f551913a7a18385165551503906a406f905ac1c2437281a7cd0cfe\n      0x26\n      swap2\n      codecopy\n      0x40\n      add\n      swap2\n      pop\n      pop\n      mload(0x40)\n      dup1\n      swap2\n      sub\n      swap1\n      revert\n    tag_91:\n        /* \"https://github.com/OpenZeppelin/openzeppelin-contracts/blob/solc-0.6/contracts/access/Ownable.sol\":2208:2216  newOwner */\n      dup1\n        /* \"https://github.com/OpenZeppelin/openzeppelin-contracts/blob/solc-0.6/contracts/access/Ownable.sol\":2179:2217  OwnershipTransferred(_owner, newOwner) */\n      0xffffffffffffffffffffffffffffffffffffffff\n      and\n        /* \"https://github.com/OpenZeppelin/openzeppelin-contracts/blob/solc-0.6/contracts/access/Ownable.sol\":2200:2206  _owner */\n      0x00\n      dup1\n      sload\n      swap1\n      0x0100\n      exp\n      swap1\n      div\n      0xffffffffffffffffffffffffffffffffffffffff\n      and\n        /* \"https://github.com/OpenZeppelin/openzeppelin-contracts/blob/solc-0.6/contracts/access/Ownable.sol\":2179:2217  OwnershipTransferred(_owner, newOwner) */\n      0xffffffffffffffffffffffffffffffffffffffff\n      and\n      0x8be0079c531659141344cd1fd0a4f28419497f9722a3daafe3b4186f6b6457e0\n      mload(0x40)\n      mload(0x40)\n      dup1\n      swap2\n      sub\n      swap1\n      log3\n        /* \"https://github.com/OpenZeppelin/openzeppelin-contracts/blob/solc-0.6/contracts/access/Ownable.sol\":2236:2244  newOwner */\n      dup1\n        /* \"https://github.com/OpenZeppelin/openzeppelin-contracts/blob/solc-0.6/contracts/access/Ownable.sol\":2227:2233  _owner */\n      0x00\n      dup1\n        /* \"https://github.com/OpenZeppelin/openzeppelin-contracts/blob/solc-0.6/contracts/access/Ownable.sol\":2227:2244  _owner = newOwner */\n      0x0100\n      exp\n      dup2\n      sload\n      dup2\n      0xffffffffffffffffffffffffffffffffffffffff\n      mul\n      not\n      and\n      swap1\n      dup4\n      0xffffffffffffffffffffffffffffffffffffffff\n      and\n      mul\n      or\n      swap1\n      sstore\n      pop\n        /* \"https://github.com/OpenZeppelin/openzeppelin-contracts/blob/solc-0.6/contracts/access/Ownable.sol\":2011:2251  function transferOwnership(address newOwner) public virtual onlyOwner {... */\n      pop\n      jump\t// out\n        /* \"https://github.com/OpenZeppelin/openzeppelin-contracts/blob/solc-0.6/contracts/utils/Context.sol\":598:702  function _msgSender() internal view virtual returns (address payable) {... */\n    tag_42:\n        /* \"https://github.com/OpenZeppelin/openzeppelin-contracts/blob/solc-0.6/contracts/utils/Context.sol\":651:666  address payable */\n      0x00\n        /* \"https://github.com/OpenZeppelin/openzeppelin-contracts/blob/solc-0.6/contracts/utils/Context.sol\":685:695  msg.sender */\n      caller\n        /* \"https://github.com/OpenZeppelin/openzeppelin-contracts/blob/solc-0.6/contracts/utils/Context.sol\":678:695  return msg.sender */\n      swap1\n      pop\n        /* \"https://github.com/OpenZeppelin/openzeppelin-contracts/blob/solc-0.6/contracts/utils/Context.sol\":598:702  function _msgSender() internal view virtual returns (address payable) {... */\n      swap1\n      jump\t// out\n        /* \"https://github.com/OpenZeppelin/openzeppelin-contracts/blob/solc-0.6/contracts/token/ERC20/SafeERC20.sol\":704:879  function safeTransfer(IERC20 token, address to, uint256 value) internal {... */\n    tag_71:\n        /* \"https://github.com/OpenZeppelin/openzeppelin-contracts/blob/solc-0.6/contracts/token/ERC20/SafeERC20.sol\":786:872  _callOptionalReturn(token, abi.encodeWithSelector(token.transfer.selector, to, value)) */\n      tag_94\n        /* \"https://github.com/OpenZeppelin/openzeppelin-contracts/blob/solc-0.6/contracts/token/ERC20/SafeERC20.sol\":806:811  token */\n      dup4\n        /* \"https://github.com/OpenZeppelin/openzeppelin-contracts/blob/solc-0.6/contracts/token/ERC20/SafeERC20.sol\":836:859  token.transfer.selector */\n      shl(0xe0, 0xa9059cbb)\n        /* \"https://github.com/OpenZeppelin/openzeppelin-contracts/blob/solc-0.6/contracts/token/ERC20/SafeERC20.sol\":861:863  to */\n      dup5\n        /* \"https://github.com/OpenZeppelin/openzeppelin-contracts/blob/solc-0.6/contracts/token/ERC20/SafeERC20.sol\":865:870  value */\n      dup5\n        /* \"https://github.com/OpenZeppelin/openzeppelin-contracts/blob/solc-0.6/contracts/token/ERC20/SafeERC20.sol\":813:871  abi.encodeWithSelector(token.transfer.selector, to, value) */\n      add(0x24, mload(0x40))\n      dup1\n      dup4\n      0xffffffffffffffffffffffffffffffffffffffff\n      and\n      dup2\n      mstore\n      0x20\n      add\n      dup3\n      dup2\n      mstore\n      0x20\n      add\n      swap3\n      pop\n      pop\n      pop\n      mload(0x40)\n      0x20\n      dup2\n      dup4\n      sub\n      sub\n      dup2\n      mstore\n      swap1\n      0x40\n      mstore\n      swap1\n      not(0xffffffffffffffffffffffffffffffffffffffffffffffffffffffff)\n      and\n      0x20\n      dup3\n      add\n      dup1\n      mload\n      0xffffffffffffffffffffffffffffffffffffffffffffffffffffffff\n      dup4\n      dup2\n      dup4\n      and\n      or\n      dup4\n      mstore\n      pop\n      pop\n      pop\n      pop\n        /* \"https://github.com/OpenZeppelin/openzeppelin-contracts/blob/solc-0.6/contracts/token/ERC20/SafeERC20.sol\":786:805  _callOptionalReturn */\n      tag_95\n        /* \"https://github.com/OpenZeppelin/openzeppelin-contracts/blob/solc-0.6/contracts/token/ERC20/SafeERC20.sol\":786:872  _callOptionalReturn(token, abi.encodeWithSelector(token.transfer.selector, to, value)) */\n      jump\t// in\n    tag_94:\n        /* \"https://github.com/OpenZeppelin/openzeppelin-contracts/blob/solc-0.6/contracts/token/ERC20/SafeERC20.sol\":704:879  function safeTransfer(IERC20 token, address to, uint256 value) internal {... */\n      pop\n      pop\n      pop\n      jump\t// out\n        /* \"https://github.com/aave/flashloan-box/blob/master/contracts/aave/FlashLoanReceiverBase.sol\":1736:1972  function getBalanceInternal(address _target, address _reserve) internal view returns(uint256) {... */\n    tag_80:\n        /* \"https://github.com/aave/flashloan-box/blob/master/contracts/aave/FlashLoanReceiverBase.sol\":1821:1828  uint256 */\n      0x00\n        /* \"https://github.com/aave/flashloan-box/blob/master/contracts/aave/FlashLoanReceiverBase.sol\":862:904  0xEeeeeEeeeEeEeeEeEeEeeEEEeeeeEeeeeeeeEEeE */\n      0xeeeeeeeeeeeeeeeeeeeeeeeeeeeeeeeeeeeeeeee\n        /* \"https://github.com/aave/flashloan-box/blob/master/contracts/aave/FlashLoanReceiverBase.sol\":1843:1865  _reserve == ethAddress */\n      0xffffffffffffffffffffffffffffffffffffffff\n      and\n        /* \"https://github.com/aave/flashloan-box/blob/master/contracts/aave/FlashLoanReceiverBase.sol\":1843:1851  _reserve */\n      dup3\n        /* \"https://github.com/aave/flashloan-box/blob/master/contracts/aave/FlashLoanReceiverBase.sol\":1843:1865  _reserve == ethAddress */\n      0xffffffffffffffffffffffffffffffffffffffff\n      and\n      eq\n        /* \"https://github.com/aave/flashloan-box/blob/master/contracts/aave/FlashLoanReceiverBase.sol\":1840:1914  if(_reserve == ethAddress) {... */\n      iszero\n      tag_97\n      jumpi\n        /* \"https://github.com/aave/flashloan-box/blob/master/contracts/aave/FlashLoanReceiverBase.sol\":1888:1895  _target */\n      dup3\n        /* \"https://github.com/aave/flashloan-box/blob/master/contracts/aave/FlashLoanReceiverBase.sol\":1888:1903  _target.balance */\n      0xffffffffffffffffffffffffffffffffffffffff\n      and\n      balance\n        /* \"https://github.com/aave/flashloan-box/blob/master/contracts/aave/FlashLoanReceiverBase.sol\":1881:1903  return _target.balance */\n      swap1\n      pop\n      jump(tag_96)\n        /* \"https://github.com/aave/flashloan-box/blob/master/contracts/aave/FlashLoanReceiverBase.sol\":1840:1914  if(_reserve == ethAddress) {... */\n    tag_97:\n        /* \"https://github.com/aave/flashloan-box/blob/master/contracts/aave/FlashLoanReceiverBase.sol\":1937:1945  _reserve */\n      dup2\n        /* \"https://github.com/aave/flashloan-box/blob/master/contracts/aave/FlashLoanReceiverBase.sol\":1930:1956  IERC20(_reserve).balanceOf */\n      0xffffffffffffffffffffffffffffffffffffffff\n      and\n      0x70a08231\n        /* \"https://github.com/aave/flashloan-box/blob/master/contracts/aave/FlashLoanReceiverBase.sol\":1957:1964  _target */\n      dup5\n        /* \"https://github.com/aave/flashloan-box/blob/master/contracts/aave/FlashLoanReceiverBase.sol\":1930:1965  IERC20(_reserve).balanceOf(_target) */\n      mload(0x40)\n      dup3\n      0xffffffff\n      and\n      0xe0\n      shl\n      dup2\n      mstore\n      0x04\n      add\n      dup1\n      dup3\n      0xffffffffffffffffffffffffffffffffffffffff\n      and\n      dup2\n      mstore\n      0x20\n      add\n      swap2\n      pop\n      pop\n      0x20\n      mload(0x40)\n      dup1\n      dup4\n      sub\n      dup2\n      dup7\n      dup1\n      extcodesize\n      iszero\n      dup1\n      iszero\n      tag_98\n      jumpi\n      0x00\n      dup1\n      revert\n    tag_98:\n      pop\n      gas\n      staticcall\n      iszero\n      dup1\n      iszero\n      tag_100\n      jumpi\n      returndatasize\n      0x00\n      dup1\n      returndatacopy\n      revert(0x00, returndatasize)\n    tag_100:\n      pop\n      pop\n      pop\n      pop\n      mload(0x40)\n      returndatasize\n      0x20\n      dup2\n      lt\n      iszero\n      tag_101\n      jumpi\n      0x00\n      dup1\n      revert\n    tag_101:\n      dup2\n      add\n      swap1\n      dup1\n      dup1\n      mload\n      swap1\n      0x20\n      add\n      swap1\n      swap3\n      swap2\n      swap1\n      pop\n      pop\n      pop\n        /* \"https://github.com/aave/flashloan-box/blob/master/contracts/aave/FlashLoanReceiverBase.sol\":1923:1965  return IERC20(_reserve).balanceOf(_target) */\n      swap1\n      pop\n        /* \"https://github.com/aave/flashloan-box/blob/master/contracts/aave/FlashLoanReceiverBase.sol\":1736:1972  function getBalanceInternal(address _target, address _reserve) internal view returns(uint256) {... */\n    tag_96:\n      swap3\n      swap2\n      pop\n      pop\n      jump\t// out\n        /* \"https://github.com/OpenZeppelin/openzeppelin-contracts/blob/solc-0.6/contracts/math/SafeMath.sol\":2690:2865  function add(uint256 a, uint256 b) internal pure returns (uint256) {... */\n    tag_83:\n        /* \"https://github.com/OpenZeppelin/openzeppelin-contracts/blob/solc-0.6/contracts/math/SafeMath.sol\":2748:2755  uint256 */\n      0x00\n        /* \"https://github.com/OpenZeppelin/openzeppelin-contracts/blob/solc-0.6/contracts/math/SafeMath.sol\":2767:2776  uint256 c */\n      dup1\n        /* \"https://github.com/OpenZeppelin/openzeppelin-contracts/blob/solc-0.6/contracts/math/SafeMath.sol\":2783:2784  b */\n      dup3\n        /* \"https://github.com/OpenZeppelin/openzeppelin-contracts/blob/solc-0.6/contracts/math/SafeMath.sol\":2779:2780  a */\n      dup5\n        /* \"https://github.com/OpenZeppelin/openzeppelin-contracts/blob/solc-0.6/contracts/math/SafeMath.sol\":2779:2784  a + b */\n      add\n        /* \"https://github.com/OpenZeppelin/openzeppelin-contracts/blob/solc-0.6/contracts/math/SafeMath.sol\":2767:2784  uint256 c = a + b */\n      swap1\n      pop\n        /* \"https://github.com/OpenZeppelin/openzeppelin-contracts/blob/solc-0.6/contracts/math/SafeMath.sol\":2807:2808  a */\n      dup4\n        /* \"https://github.com/OpenZeppelin/openzeppelin-contracts/blob/solc-0.6/contracts/math/SafeMath.sol\":2802:2803  c */\n      dup2\n        /* \"https://github.com/OpenZeppelin/openzeppelin-contracts/blob/solc-0.6/contracts/math/SafeMath.sol\":2802:2808  c >= a */\n      lt\n      iszero\n        /* \"https://github.com/OpenZeppelin/openzeppelin-contracts/blob/solc-0.6/contracts/math/SafeMath.sol\":2794:2840  require(c >= a, \"SafeMath: addition overflow\") */\n      tag_103\n      jumpi\n      mload(0x40)\n      0x08c379a000000000000000000000000000000000000000000000000000000000\n      dup2\n      mstore\n      0x04\n      add\n      dup1\n      dup1\n      0x20\n      add\n      dup3\n      dup2\n      sub\n      dup3\n      mstore\n      0x1b\n      dup2\n      mstore\n      0x20\n      add\n      dup1\n      0x536166654d6174683a206164646974696f6e206f766572666c6f770000000000\n      dup2\n      mstore\n      pop\n      0x20\n      add\n      swap2\n      pop\n      pop\n      mload(0x40)\n      dup1\n      swap2\n      sub\n      swap1\n      revert\n    tag_103:\n        /* \"https://github.com/OpenZeppelin/openzeppelin-contracts/blob/solc-0.6/contracts/math/SafeMath.sol\":2857:2858  c */\n      dup1\n        /* \"https://github.com/OpenZeppelin/openzeppelin-contracts/blob/solc-0.6/contracts/math/SafeMath.sol\":2850:2858  return c */\n      swap2\n      pop\n      pop\n        /* \"https://github.com/OpenZeppelin/openzeppelin-contracts/blob/solc-0.6/contracts/math/SafeMath.sol\":2690:2865  function add(uint256 a, uint256 b) internal pure returns (uint256) {... */\n      swap3\n      swap2\n      pop\n      pop\n      jump\t// out\n        /* \"https://github.com/aave/flashloan-box/blob/master/contracts/aave/FlashLoanReceiverBase.sol\":1141:1355  function transferFundsBackToPoolInternal(address _reserve, uint256 _amount) internal {... */\n    tag_85:\n        /* \"https://github.com/aave/flashloan-box/blob/master/contracts/aave/FlashLoanReceiverBase.sol\":1236:1256  address payable core */\n      0x00\n        /* \"https://github.com/aave/flashloan-box/blob/master/contracts/aave/FlashLoanReceiverBase.sol\":1259:1276  addressesProvider */\n      0x01\n      0x00\n      swap1\n      sload\n      swap1\n      0x0100\n      exp\n      swap1\n      div\n      0xffffffffffffffffffffffffffffffffffffffff\n      and\n        /* \"https://github.com/aave/flashloan-box/blob/master/contracts/aave/FlashLoanReceiverBase.sol\":1259:1295  addressesProvider.getLendingPoolCore */\n      0xffffffffffffffffffffffffffffffffffffffff\n      and\n      0xed6ff760\n        /* \"https://github.com/aave/flashloan-box/blob/master/contracts/aave/FlashLoanReceiverBase.sol\":1259:1297  addressesProvider.getLendingPoolCore() */\n      mload(0x40)\n      dup2\n      0xffffffff\n      and\n      0xe0\n      shl\n      dup2\n      mstore\n      0x04\n      add\n      0x20\n      mload(0x40)\n      dup1\n      dup4\n      sub\n      dup2\n      dup7\n      dup1\n      extcodesize\n      iszero\n      dup1\n      iszero\n      tag_105\n      jumpi\n      0x00\n      dup1\n      revert\n    tag_105:\n      pop\n      gas\n      staticcall\n      iszero\n      dup1\n      iszero\n      tag_107\n      jumpi\n      returndatasize\n      0x00\n      dup1\n      returndatacopy\n      revert(0x00, returndatasize)\n    tag_107:\n      pop\n      pop\n      pop\n      pop\n      mload(0x40)\n      returndatasize\n      0x20\n      dup2\n      lt\n      iszero\n      tag_108\n      jumpi\n      0x00\n      dup1\n      revert\n    tag_108:\n      dup2\n      add\n      swap1\n      dup1\n      dup1\n      mload\n      swap1\n      0x20\n      add\n      swap1\n      swap3\n      swap2\n      swap1\n      pop\n      pop\n      pop\n        /* \"https://github.com/aave/flashloan-box/blob/master/contracts/aave/FlashLoanReceiverBase.sol\":1236:1297  address payable core = addressesProvider.getLendingPoolCore() */\n      swap1\n      pop\n        /* \"https://github.com/aave/flashloan-box/blob/master/contracts/aave/FlashLoanReceiverBase.sol\":1307:1348  transferInternal(core, _reserve, _amount) */\n      tag_109\n        /* \"https://github.com/aave/flashloan-box/blob/master/contracts/aave/FlashLoanReceiverBase.sol\":1324:1328  core */\n      dup2\n        /* \"https://github.com/aave/flashloan-box/blob/master/contracts/aave/FlashLoanReceiverBase.sol\":1330:1338  _reserve */\n      dup5\n        /* \"https://github.com/aave/flashloan-box/blob/master/contracts/aave/FlashLoanReceiverBase.sol\":1340:1347  _amount */\n      dup5\n        /* \"https://github.com/aave/flashloan-box/blob/master/contracts/aave/FlashLoanReceiverBase.sol\":1307:1323  transferInternal */\n      tag_110\n        /* \"https://github.com/aave/flashloan-box/blob/master/contracts/aave/FlashLoanReceiverBase.sol\":1307:1348  transferInternal(core, _reserve, _amount) */\n      jump\t// in\n    tag_109:\n        /* \"https://github.com/aave/flashloan-box/blob/master/contracts/aave/FlashLoanReceiverBase.sol\":1141:1355  function transferFundsBackToPoolInternal(address _reserve, uint256 _amount) internal {... */\n      pop\n      pop\n      pop\n      jump\t// out\n        /* \"https://github.com/OpenZeppelin/openzeppelin-contracts/blob/solc-0.6/contracts/token/ERC20/SafeERC20.sol\":2967:3718  function _callOptionalReturn(IERC20 token, bytes memory data) private {... */\n    tag_95:\n        /* \"https://github.com/OpenZeppelin/openzeppelin-contracts/blob/solc-0.6/contracts/token/ERC20/SafeERC20.sol\":3386:3409  bytes memory returndata */\n      0x60\n        /* \"https://github.com/OpenZeppelin/openzeppelin-contracts/blob/solc-0.6/contracts/token/ERC20/SafeERC20.sol\":3412:3481  address(token).functionCall(data, \"SafeERC20: low-level call failed\") */\n      tag_112\n        /* \"https://github.com/OpenZeppelin/openzeppelin-contracts/blob/solc-0.6/contracts/token/ERC20/SafeERC20.sol\":3440:3444  data */\n      dup3\n        /* \"https://github.com/OpenZeppelin/openzeppelin-contracts/blob/solc-0.6/contracts/token/ERC20/SafeERC20.sol\":3412:3481  address(token).functionCall(data, \"SafeERC20: low-level call failed\") */\n      mload(0x40)\n      dup1\n      0x40\n      add\n      0x40\n      mstore\n      dup1\n      0x20\n      dup2\n      mstore\n      0x20\n      add\n      0x5361666545524332303a206c6f772d6c6576656c2063616c6c206661696c6564\n      dup2\n      mstore\n      pop\n        /* \"https://github.com/OpenZeppelin/openzeppelin-contracts/blob/solc-0.6/contracts/token/ERC20/SafeERC20.sol\":3420:3425  token */\n      dup6\n        /* \"https://github.com/OpenZeppelin/openzeppelin-contracts/blob/solc-0.6/contracts/token/ERC20/SafeERC20.sol\":3412:3439  address(token).functionCall */\n      0xffffffffffffffffffffffffffffffffffffffff\n      and\n      tag_113\n      swap1\n        /* \"https://github.com/OpenZeppelin/openzeppelin-contracts/blob/solc-0.6/contracts/token/ERC20/SafeERC20.sol\":3412:3481  address(token).functionCall(data, \"SafeERC20: low-level call failed\") */\n      swap3\n      swap2\n      swap1\n      0xffffffff\n      and\n      jump\t// in\n    tag_112:\n        /* \"https://github.com/OpenZeppelin/openzeppelin-contracts/blob/solc-0.6/contracts/token/ERC20/SafeERC20.sol\":3386:3481  bytes memory returndata = address(token).functionCall(data, \"SafeERC20: low-level call failed\") */\n      swap1\n      pop\n        /* \"https://github.com/OpenZeppelin/openzeppelin-contracts/blob/solc-0.6/contracts/token/ERC20/SafeERC20.sol\":3515:3516  0 */\n      0x00\n        /* \"https://github.com/OpenZeppelin/openzeppelin-contracts/blob/solc-0.6/contracts/token/ERC20/SafeERC20.sol\":3495:3505  returndata */\n      dup2\n        /* \"https://github.com/OpenZeppelin/openzeppelin-contracts/blob/solc-0.6/contracts/token/ERC20/SafeERC20.sol\":3495:3512  returndata.length */\n      mload\n        /* \"https://github.com/OpenZeppelin/openzeppelin-contracts/blob/solc-0.6/contracts/token/ERC20/SafeERC20.sol\":3495:3516  returndata.length > 0 */\n      gt\n        /* \"https://github.com/OpenZeppelin/openzeppelin-contracts/blob/solc-0.6/contracts/token/ERC20/SafeERC20.sol\":3491:3712  if (returndata.length > 0) { // Return data is optional... */\n      iszero\n      tag_114\n      jumpi\n        /* \"https://github.com/OpenZeppelin/openzeppelin-contracts/blob/solc-0.6/contracts/token/ERC20/SafeERC20.sol\":3635:3645  returndata */\n      dup1\n        /* \"https://github.com/OpenZeppelin/openzeppelin-contracts/blob/solc-0.6/contracts/token/ERC20/SafeERC20.sol\":3624:3654  abi.decode(returndata, (bool)) */\n      dup1\n      0x20\n      add\n      swap1\n      mload\n      0x20\n      dup2\n      lt\n      iszero\n      tag_115\n      jumpi\n      0x00\n      dup1\n      revert\n    tag_115:\n      dup2\n      add\n      swap1\n      dup1\n      dup1\n      mload\n      swap1\n      0x20\n      add\n      swap1\n      swap3\n      swap2\n      swap1\n      pop\n      pop\n      pop\n        /* \"https://github.com/OpenZeppelin/openzeppelin-contracts/blob/solc-0.6/contracts/token/ERC20/SafeERC20.sol\":3616:3701  require(abi.decode(returndata, (bool)), \"SafeERC20: ERC20 operation did not succeed\") */\n      tag_116\n      jumpi\n      mload(0x40)\n      0x08c379a000000000000000000000000000000000000000000000000000000000\n      dup2\n      mstore\n      0x04\n      add\n      dup1\n      dup1\n      0x20\n      add\n      dup3\n      dup2\n      sub\n      dup3\n      mstore\n      0x2a\n      dup2\n      mstore\n      0x20\n      add\n      dup1\n      data_e11ad79d1e4a7f2e5f376964cb99e8e8f7904e3fc16a109f7a7ecb9aa7956dcd\n      0x2a\n      swap2\n      codecopy\n      0x40\n      add\n      swap2\n      pop\n      pop\n      mload(0x40)\n      dup1\n      swap2\n      sub\n      swap1\n      revert\n    tag_116:\n        /* \"https://github.com/OpenZeppelin/openzeppelin-contracts/blob/solc-0.6/contracts/token/ERC20/SafeERC20.sol\":3491:3712  if (returndata.length > 0) { // Return data is optional... */\n    tag_114:\n        /* \"https://github.com/OpenZeppelin/openzeppelin-contracts/blob/solc-0.6/contracts/token/ERC20/SafeERC20.sol\":2967:3718  function _callOptionalReturn(IERC20 token, bytes memory data) private {... */\n      pop\n      pop\n      pop\n      jump\t// out\n        /* \"https://github.com/aave/flashloan-box/blob/master/contracts/aave/FlashLoanReceiverBase.sol\":1361:1730  function transferInternal(address payable _destination, address _reserve, uint256 _amount) internal {... */\n    tag_110:\n        /* \"https://github.com/aave/flashloan-box/blob/master/contracts/aave/FlashLoanReceiverBase.sol\":862:904  0xEeeeeEeeeEeEeeEeEeEeeEEEeeeeEeeeeeeeEEeE */\n      0xeeeeeeeeeeeeeeeeeeeeeeeeeeeeeeeeeeeeeeee\n        /* \"https://github.com/aave/flashloan-box/blob/master/contracts/aave/FlashLoanReceiverBase.sol\":1474:1496  _reserve == ethAddress */\n      0xffffffffffffffffffffffffffffffffffffffff\n      and\n        /* \"https://github.com/aave/flashloan-box/blob/master/contracts/aave/FlashLoanReceiverBase.sol\":1474:1482  _reserve */\n      dup3\n        /* \"https://github.com/aave/flashloan-box/blob/master/contracts/aave/FlashLoanReceiverBase.sol\":1474:1496  _reserve == ethAddress */\n      0xffffffffffffffffffffffffffffffffffffffff\n      and\n      eq\n        /* \"https://github.com/aave/flashloan-box/blob/master/contracts/aave/FlashLoanReceiverBase.sol\":1471:1662  if(_reserve == ethAddress) {... */\n      iszero\n      tag_118\n      jumpi\n        /* \"https://github.com/aave/flashloan-box/blob/master/contracts/aave/FlashLoanReceiverBase.sol\":1513:1525  bool success */\n      0x00\n        /* \"https://github.com/aave/flashloan-box/blob/master/contracts/aave/FlashLoanReceiverBase.sol\":1531:1543  _destination */\n      dup4\n        /* \"https://github.com/aave/flashloan-box/blob/master/contracts/aave/FlashLoanReceiverBase.sol\":1531:1548  _destination.call */\n      0xffffffffffffffffffffffffffffffffffffffff\n      and\n        /* \"https://github.com/aave/flashloan-box/blob/master/contracts/aave/FlashLoanReceiverBase.sol\":1556:1563  _amount */\n      dup3\n        /* \"https://github.com/aave/flashloan-box/blob/master/contracts/aave/FlashLoanReceiverBase.sol\":1531:1568  _destination.call{value: _amount}(\"\") */\n      mload(0x40)\n      dup1\n      0x00\n      add\n      swap1\n      pop\n      0x00\n      mload(0x40)\n      dup1\n      dup4\n      sub\n      dup2\n      dup6\n      dup8\n      gas\n      call\n      swap3\n      pop\n      pop\n      pop\n      returndatasize\n      dup1\n      0x00\n      dup2\n      eq\n      tag_121\n      jumpi\n      mload(0x40)\n      swap2\n      pop\n      and(add(returndatasize, 0x3f), not(0x1f))\n      dup3\n      add\n      0x40\n      mstore\n      returndatasize\n      dup3\n      mstore\n      returndatasize\n      0x00\n      0x20\n      dup5\n      add\n      returndatacopy\n      jump(tag_120)\n    tag_121:\n      0x60\n      swap2\n      pop\n    tag_120:\n      pop\n        /* \"https://github.com/aave/flashloan-box/blob/master/contracts/aave/FlashLoanReceiverBase.sol\":1512:1568  (bool success, ) = _destination.call{value: _amount}(\"\") */\n      pop\n      swap1\n      pop\n        /* \"https://github.com/aave/flashloan-box/blob/master/contracts/aave/FlashLoanReceiverBase.sol\":1601:1605  true */\n      0x01\n        /* \"https://github.com/aave/flashloan-box/blob/master/contracts/aave/FlashLoanReceiverBase.sol\":1590:1605  success == true */\n      iszero\n      iszero\n        /* \"https://github.com/aave/flashloan-box/blob/master/contracts/aave/FlashLoanReceiverBase.sol\":1590:1597  success */\n      dup2\n        /* \"https://github.com/aave/flashloan-box/blob/master/contracts/aave/FlashLoanReceiverBase.sol\":1590:1605  success == true */\n      iszero\n      iszero\n      eq\n        /* \"https://github.com/aave/flashloan-box/blob/master/contracts/aave/FlashLoanReceiverBase.sol\":1582:1631  require(success == true, \"Couldn't transfer ETH\") */\n      tag_122\n      jumpi\n      mload(0x40)\n      0x08c379a000000000000000000000000000000000000000000000000000000000\n      dup2\n      mstore\n      0x04\n      add\n      dup1\n      dup1\n      0x20\n      add\n      dup3\n      dup2\n      sub\n      dup3\n      mstore\n      0x15\n      dup2\n      mstore\n      0x20\n      add\n      dup1\n      0x436f756c646e2774207472616e73666572204554480000000000000000000000\n      dup2\n      mstore\n      pop\n      0x20\n      add\n      swap2\n      pop\n      pop\n      mload(0x40)\n      dup1\n      swap2\n      sub\n      swap1\n      revert\n    tag_122:\n        /* \"https://github.com/aave/flashloan-box/blob/master/contracts/aave/FlashLoanReceiverBase.sol\":1645:1652  return; */\n      pop\n      jump(tag_117)\n        /* \"https://github.com/aave/flashloan-box/blob/master/contracts/aave/FlashLoanReceiverBase.sol\":1471:1662  if(_reserve == ethAddress) {... */\n    tag_118:\n        /* \"https://github.com/aave/flashloan-box/blob/master/contracts/aave/FlashLoanReceiverBase.sol\":1671:1723  IERC20(_reserve).safeTransfer(_destination, _amount) */\n      tag_123\n        /* \"https://github.com/aave/flashloan-box/blob/master/contracts/aave/FlashLoanReceiverBase.sol\":1701:1713  _destination */\n      dup4\n        /* \"https://github.com/aave/flashloan-box/blob/master/contracts/aave/FlashLoanReceiverBase.sol\":1715:1722  _amount */\n      dup3\n        /* \"https://github.com/aave/flashloan-box/blob/master/contracts/aave/FlashLoanReceiverBase.sol\":1678:1686  _reserve */\n      dup5\n        /* \"https://github.com/aave/flashloan-box/blob/master/contracts/aave/FlashLoanReceiverBase.sol\":1671:1700  IERC20(_reserve).safeTransfer */\n      0xffffffffffffffffffffffffffffffffffffffff\n      and\n      tag_71\n      swap1\n        /* \"https://github.com/aave/flashloan-box/blob/master/contracts/aave/FlashLoanReceiverBase.sol\":1671:1723  IERC20(_reserve).safeTransfer(_destination, _amount) */\n      swap3\n      swap2\n      swap1\n      0xffffffff\n      and\n      jump\t// in\n    tag_123:\n        /* \"https://github.com/aave/flashloan-box/blob/master/contracts/aave/FlashLoanReceiverBase.sol\":1361:1730  function transferInternal(address payable _destination, address _reserve, uint256 _amount) internal {... */\n    tag_117:\n      pop\n      pop\n      pop\n      jump\t// out\n        /* \"https://github.com/OpenZeppelin/openzeppelin-contracts/blob/solc-0.6/contracts/utils/Address.sol\":3581:3774  function functionCall(address target, bytes memory data, string memory errorMessage) internal returns (bytes memory) {... */\n    tag_113:\n        /* \"https://github.com/OpenZeppelin/openzeppelin-contracts/blob/solc-0.6/contracts/utils/Address.sol\":3684:3696  bytes memory */\n      0x60\n        /* \"https://github.com/OpenZeppelin/openzeppelin-contracts/blob/solc-0.6/contracts/utils/Address.sol\":3715:3767  functionCallWithValue(target, data, 0, errorMessage) */\n      tag_125\n        /* \"https://github.com/OpenZeppelin/openzeppelin-contracts/blob/solc-0.6/contracts/utils/Address.sol\":3737:3743  target */\n      dup5\n        /* \"https://github.com/OpenZeppelin/openzeppelin-contracts/blob/solc-0.6/contracts/utils/Address.sol\":3745:3749  data */\n      dup5\n        /* \"https://github.com/OpenZeppelin/openzeppelin-contracts/blob/solc-0.6/contracts/utils/Address.sol\":3751:3752  0 */\n      0x00\n        /* \"https://github.com/OpenZeppelin/openzeppelin-contracts/blob/solc-0.6/contracts/utils/Address.sol\":3754:3766  errorMessage */\n      dup6\n        /* \"https://github.com/OpenZeppelin/openzeppelin-contracts/blob/solc-0.6/contracts/utils/Address.sol\":3715:3736  functionCallWithValue */\n      tag_126\n        /* \"https://github.com/OpenZeppelin/openzeppelin-contracts/blob/solc-0.6/contracts/utils/Address.sol\":3715:3767  functionCallWithValue(target, data, 0, errorMessage) */\n      jump\t// in\n    tag_125:\n        /* \"https://github.com/OpenZeppelin/openzeppelin-contracts/blob/solc-0.6/contracts/utils/Address.sol\":3708:3767  return functionCallWithValue(target, data, 0, errorMessage) */\n      swap1\n      pop\n        /* \"https://github.com/OpenZeppelin/openzeppelin-contracts/blob/solc-0.6/contracts/utils/Address.sol\":3581:3774  function functionCall(address target, bytes memory data, string memory errorMessage) internal returns (bytes memory) {... */\n      swap4\n      swap3\n      pop\n      pop\n      pop\n      jump\t// out\n        /* \"https://github.com/OpenZeppelin/openzeppelin-contracts/blob/solc-0.6/contracts/utils/Address.sol\":4608:5131  function functionCallWithValue(address target, bytes memory data, uint256 value, string memory errorMessage) internal returns (bytes memory) {... */\n    tag_126:\n        /* \"https://github.com/OpenZeppelin/openzeppelin-contracts/blob/solc-0.6/contracts/utils/Address.sol\":4735:4747  bytes memory */\n      0x60\n        /* \"https://github.com/OpenZeppelin/openzeppelin-contracts/blob/solc-0.6/contracts/utils/Address.sol\":4792:4797  value */\n      dup3\n        /* \"https://github.com/OpenZeppelin/openzeppelin-contracts/blob/solc-0.6/contracts/utils/Address.sol\":4767:4788  address(this).balance */\n      selfbalance\n        /* \"https://github.com/OpenZeppelin/openzeppelin-contracts/blob/solc-0.6/contracts/utils/Address.sol\":4767:4797  address(this).balance >= value */\n      lt\n      iszero\n        /* \"https://github.com/OpenZeppelin/openzeppelin-contracts/blob/solc-0.6/contracts/utils/Address.sol\":4759:4840  require(address(this).balance >= value, \"Address: insufficient balance for call\") */\n      tag_128\n      jumpi\n      mload(0x40)\n      0x08c379a000000000000000000000000000000000000000000000000000000000\n      dup2\n      mstore\n      0x04\n      add\n      dup1\n      dup1\n      0x20\n      add\n      dup3\n      dup2\n      sub\n      dup3\n      mstore\n      0x26\n      dup2\n      mstore\n      0x20\n      add\n      dup1\n      data_565f1a77334fc4792800921178c71e4521acffab18ff9e7885b49377ee80ab4c\n      0x26\n      swap2\n      codecopy\n      0x40\n      add\n      swap2\n      pop\n      pop\n      mload(0x40)\n      dup1\n      swap2\n      sub\n      swap1\n      revert\n    tag_128:\n        /* \"https://github.com/OpenZeppelin/openzeppelin-contracts/blob/solc-0.6/contracts/utils/Address.sol\":4858:4876  isContract(target) */\n      tag_129\n        /* \"https://github.com/OpenZeppelin/openzeppelin-contracts/blob/solc-0.6/contracts/utils/Address.sol\":4869:4875  target */\n      dup6\n        /* \"https://github.com/OpenZeppelin/openzeppelin-contracts/blob/solc-0.6/contracts/utils/Address.sol\":4858:4868  isContract */\n      tag_130\n        /* \"https://github.com/OpenZeppelin/openzeppelin-contracts/blob/solc-0.6/contracts/utils/Address.sol\":4858:4876  isContract(target) */\n      jump\t// in\n    tag_129:\n        /* \"https://github.com/OpenZeppelin/openzeppelin-contracts/blob/solc-0.6/contracts/utils/Address.sol\":4850:4910  require(isContract(target), \"Address: call to non-contract\") */\n      tag_131\n      jumpi\n      mload(0x40)\n      0x08c379a000000000000000000000000000000000000000000000000000000000\n      dup2\n      mstore\n      0x04\n      add\n      dup1\n      dup1\n      0x20\n      add\n      dup3\n      dup2\n      sub\n      dup3\n      mstore\n      0x1d\n      dup2\n      mstore\n      0x20\n      add\n      dup1\n      0x416464726573733a2063616c6c20746f206e6f6e2d636f6e7472616374000000\n      dup2\n      mstore\n      pop\n      0x20\n      add\n      swap2\n      pop\n      pop\n      mload(0x40)\n      dup1\n      swap2\n      sub\n      swap1\n      revert\n    tag_131:\n        /* \"https://github.com/OpenZeppelin/openzeppelin-contracts/blob/solc-0.6/contracts/utils/Address.sol\":4981:4993  bool success */\n      0x00\n        /* \"https://github.com/OpenZeppelin/openzeppelin-contracts/blob/solc-0.6/contracts/utils/Address.sol\":4995:5018  bytes memory returndata */\n      0x60\n        /* \"https://github.com/OpenZeppelin/openzeppelin-contracts/blob/solc-0.6/contracts/utils/Address.sol\":5022:5028  target */\n      dup7\n        /* \"https://github.com/OpenZeppelin/openzeppelin-contracts/blob/solc-0.6/contracts/utils/Address.sol\":5022:5033  target.call */\n      0xffffffffffffffffffffffffffffffffffffffff\n      and\n        /* \"https://github.com/OpenZeppelin/openzeppelin-contracts/blob/solc-0.6/contracts/utils/Address.sol\":5042:5047  value */\n      dup6\n        /* \"https://github.com/OpenZeppelin/openzeppelin-contracts/blob/solc-0.6/contracts/utils/Address.sol\":5050:5054  data */\n      dup8\n        /* \"https://github.com/OpenZeppelin/openzeppelin-contracts/blob/solc-0.6/contracts/utils/Address.sol\":5022:5055  target.call{ value: value }(data) */\n      mload(0x40)\n      dup1\n      dup3\n      dup1\n      mload\n      swap1\n      0x20\n      add\n      swap1\n      dup1\n      dup4\n      dup4\n    tag_132:\n      0x20\n      dup4\n      lt\n      tag_134\n      jumpi\n      dup1\n      mload\n      dup3\n      mstore\n      0x20\n      dup3\n      add\n      swap2\n      pop\n      0x20\n      dup2\n      add\n      swap1\n      pop\n      0x20\n      dup4\n      sub\n      swap3\n      pop\n      jump(tag_132)\n    tag_134:\n      0x01\n      dup4\n      0x20\n      sub\n      0x0100\n      exp\n      sub\n      dup1\n      not\n      dup3\n      mload\n      and\n      dup2\n      dup5\n      mload\n      and\n      dup1\n      dup3\n      or\n      dup6\n      mstore\n      pop\n      pop\n      pop\n      pop\n      pop\n      pop\n      swap1\n      pop\n      add\n      swap2\n      pop\n      pop\n      0x00\n      mload(0x40)\n      dup1\n      dup4\n      sub\n      dup2\n      dup6\n      dup8\n      gas\n      call\n      swap3\n      pop\n      pop\n      pop\n      returndatasize\n      dup1\n      0x00\n      dup2\n      eq\n      tag_137\n      jumpi\n      mload(0x40)\n      swap2\n      pop\n      and(add(returndatasize, 0x3f), not(0x1f))\n      dup3\n      add\n      0x40\n      mstore\n      returndatasize\n      dup3\n      mstore\n      returndatasize\n      0x00\n      0x20\n      dup5\n      add\n      returndatacopy\n      jump(tag_136)\n    tag_137:\n      0x60\n      swap2\n      pop\n    tag_136:\n      pop\n        /* \"https://github.com/OpenZeppelin/openzeppelin-contracts/blob/solc-0.6/contracts/utils/Address.sol\":4980:5055  (bool success, bytes memory returndata) = target.call{ value: value }(data) */\n      swap2\n      pop\n      swap2\n      pop\n        /* \"https://github.com/OpenZeppelin/openzeppelin-contracts/blob/solc-0.6/contracts/utils/Address.sol\":5072:5124  _verifyCallResult(success, returndata, errorMessage) */\n      tag_138\n        /* \"https://github.com/OpenZeppelin/openzeppelin-contracts/blob/solc-0.6/contracts/utils/Address.sol\":5090:5097  success */\n      dup3\n        /* \"https://github.com/OpenZeppelin/openzeppelin-contracts/blob/solc-0.6/contracts/utils/Address.sol\":5099:5109  returndata */\n      dup3\n        /* \"https://github.com/OpenZeppelin/openzeppelin-contracts/blob/solc-0.6/contracts/utils/Address.sol\":5111:5123  errorMessage */\n      dup7\n        /* \"https://github.com/OpenZeppelin/openzeppelin-contracts/blob/solc-0.6/contracts/utils/Address.sol\":5072:5089  _verifyCallResult */\n      tag_139\n        /* \"https://github.com/OpenZeppelin/openzeppelin-contracts/blob/solc-0.6/contracts/utils/Address.sol\":5072:5124  _verifyCallResult(success, returndata, errorMessage) */\n      jump\t// in\n    tag_138:\n        /* \"https://github.com/OpenZeppelin/openzeppelin-contracts/blob/solc-0.6/contracts/utils/Address.sol\":5065:5124  return _verifyCallResult(success, returndata, errorMessage) */\n      swap3\n      pop\n      pop\n      pop\n        /* \"https://github.com/OpenZeppelin/openzeppelin-contracts/blob/solc-0.6/contracts/utils/Address.sol\":4608:5131  function functionCallWithValue(address target, bytes memory data, uint256 value, string memory errorMessage) internal returns (bytes memory) {... */\n      swap5\n      swap4\n      pop\n      pop\n      pop\n      pop\n      jump\t// out\n        /* \"https://github.com/OpenZeppelin/openzeppelin-contracts/blob/solc-0.6/contracts/utils/Address.sol\":726:1139  function isContract(address account) internal view returns (bool) {... */\n    tag_130:\n        /* \"https://github.com/OpenZeppelin/openzeppelin-contracts/blob/solc-0.6/contracts/utils/Address.sol\":786:790  bool */\n      0x00\n        /* \"https://github.com/OpenZeppelin/openzeppelin-contracts/blob/solc-0.6/contracts/utils/Address.sol\":989:1001  uint256 size */\n      dup1\n        /* \"https://github.com/OpenZeppelin/openzeppelin-contracts/blob/solc-0.6/contracts/utils/Address.sol\":1098:1105  account */\n      dup3\n        /* \"https://github.com/OpenZeppelin/openzeppelin-contracts/blob/solc-0.6/contracts/utils/Address.sol\":1086:1106  extcodesize(account) */\n      extcodesize\n        /* \"https://github.com/OpenZeppelin/openzeppelin-contracts/blob/solc-0.6/contracts/utils/Address.sol\":1078:1106  size := extcodesize(account) */\n      swap1\n      pop\n        /* \"https://github.com/OpenZeppelin/openzeppelin-contracts/blob/solc-0.6/contracts/utils/Address.sol\":1131:1132  0 */\n      0x00\n        /* \"https://github.com/OpenZeppelin/openzeppelin-contracts/blob/solc-0.6/contracts/utils/Address.sol\":1124:1128  size */\n      dup2\n        /* \"https://github.com/OpenZeppelin/openzeppelin-contracts/blob/solc-0.6/contracts/utils/Address.sol\":1124:1132  size > 0 */\n      gt\n        /* \"https://github.com/OpenZeppelin/openzeppelin-contracts/blob/solc-0.6/contracts/utils/Address.sol\":1117:1132  return size > 0 */\n      swap2\n      pop\n      pop\n        /* \"https://github.com/OpenZeppelin/openzeppelin-contracts/blob/solc-0.6/contracts/utils/Address.sol\":726:1139  function isContract(address account) internal view returns (bool) {... */\n      swap2\n      swap1\n      pop\n      jump\t// out\n        /* \"https://github.com/OpenZeppelin/openzeppelin-contracts/blob/solc-0.6/contracts/utils/Address.sol\":7091:7816  function _verifyCallResult(bool success, bytes memory returndata, string memory errorMessage) private pure returns(bytes memory) {... */\n    tag_139:\n        /* \"https://github.com/OpenZeppelin/openzeppelin-contracts/blob/solc-0.6/contracts/utils/Address.sol\":7206:7218  bytes memory */\n      0x60\n        /* \"https://github.com/OpenZeppelin/openzeppelin-contracts/blob/solc-0.6/contracts/utils/Address.sol\":7234:7241  success */\n      dup4\n        /* \"https://github.com/OpenZeppelin/openzeppelin-contracts/blob/solc-0.6/contracts/utils/Address.sol\":7230:7810  if (success) {... */\n      iszero\n      tag_142\n      jumpi\n        /* \"https://github.com/OpenZeppelin/openzeppelin-contracts/blob/solc-0.6/contracts/utils/Address.sol\":7264:7274  returndata */\n      dup3\n        /* \"https://github.com/OpenZeppelin/openzeppelin-contracts/blob/solc-0.6/contracts/utils/Address.sol\":7257:7274  return returndata */\n      swap1\n      pop\n      jump(tag_141)\n        /* \"https://github.com/OpenZeppelin/openzeppelin-contracts/blob/solc-0.6/contracts/utils/Address.sol\":7230:7810  if (success) {... */\n    tag_142:\n        /* \"https://github.com/OpenZeppelin/openzeppelin-contracts/blob/solc-0.6/contracts/utils/Address.sol\":7395:7396  0 */\n      0x00\n        /* \"https://github.com/OpenZeppelin/openzeppelin-contracts/blob/solc-0.6/contracts/utils/Address.sol\":7375:7385  returndata */\n      dup4\n        /* \"https://github.com/OpenZeppelin/openzeppelin-contracts/blob/solc-0.6/contracts/utils/Address.sol\":7375:7392  returndata.length */\n      mload\n        /* \"https://github.com/OpenZeppelin/openzeppelin-contracts/blob/solc-0.6/contracts/utils/Address.sol\":7375:7396  returndata.length > 0 */\n      gt\n        /* \"https://github.com/OpenZeppelin/openzeppelin-contracts/blob/solc-0.6/contracts/utils/Address.sol\":7371:7800  if (returndata.length > 0) {... */\n      iszero\n      tag_144\n      jumpi\n        /* \"https://github.com/OpenZeppelin/openzeppelin-contracts/blob/solc-0.6/contracts/utils/Address.sol\":7633:7643  returndata */\n      dup3\n        /* \"https://github.com/OpenZeppelin/openzeppelin-contracts/blob/solc-0.6/contracts/utils/Address.sol\":7627:7644  mload(returndata) */\n      mload\n        /* \"https://github.com/OpenZeppelin/openzeppelin-contracts/blob/solc-0.6/contracts/utils/Address.sol\":7693:7708  returndata_size */\n      dup1\n        /* \"https://github.com/OpenZeppelin/openzeppelin-contracts/blob/solc-0.6/contracts/utils/Address.sol\":7680:7690  returndata */\n      dup5\n        /* \"https://github.com/OpenZeppelin/openzeppelin-contracts/blob/solc-0.6/contracts/utils/Address.sol\":7676:7678  32 */\n      0x20\n        /* \"https://github.com/OpenZeppelin/openzeppelin-contracts/blob/solc-0.6/contracts/utils/Address.sol\":7672:7691  add(32, returndata) */\n      add\n        /* \"https://github.com/OpenZeppelin/openzeppelin-contracts/blob/solc-0.6/contracts/utils/Address.sol\":7665:7709  revert(add(32, returndata), returndata_size) */\n      revert\n        /* \"https://github.com/OpenZeppelin/openzeppelin-contracts/blob/solc-0.6/contracts/utils/Address.sol\":7582:7727  {... */\n    tag_144:\n        /* \"https://github.com/OpenZeppelin/openzeppelin-contracts/blob/solc-0.6/contracts/utils/Address.sol\":7772:7784  errorMessage */\n      dup2\n        /* \"https://github.com/OpenZeppelin/openzeppelin-contracts/blob/solc-0.6/contracts/utils/Address.sol\":7765:7785  revert(errorMessage) */\n      mload(0x40)\n      0x08c379a000000000000000000000000000000000000000000000000000000000\n      dup2\n      mstore\n      0x04\n      add\n      dup1\n      dup1\n      0x20\n      add\n      dup3\n      dup2\n      sub\n      dup3\n      mstore\n      dup4\n      dup2\n      dup2\n      mload\n      dup2\n      mstore\n      0x20\n      add\n      swap2\n      pop\n      dup1\n      mload\n      swap1\n      0x20\n      add\n      swap1\n      dup1\n      dup4\n      dup4\n      0x00\n    tag_146:\n      dup4\n      dup2\n      lt\n      iszero\n      tag_148\n      jumpi\n      dup1\n      dup3\n      add\n      mload\n      dup2\n      dup5\n      add\n      mstore\n      0x20\n      dup2\n      add\n      swap1\n      pop\n      jump(tag_146)\n    tag_148:\n      pop\n      pop\n      pop\n      pop\n      swap1\n      pop\n      swap1\n      dup2\n      add\n      swap1\n      0x1f\n      and\n      dup1\n      iszero\n      tag_149\n      jumpi\n      dup1\n      dup3\n      sub\n      dup1\n      mload\n      0x01\n      dup4\n      0x20\n      sub\n      0x0100\n      exp\n      sub\n      not\n      and\n      dup2\n      mstore\n      0x20\n      add\n      swap2\n      pop\n    tag_149:\n      pop\n      swap3\n      pop\n      pop\n      pop\n      mload(0x40)\n      dup1\n      swap2\n      sub\n      swap1\n      revert\n        /* \"https://github.com/OpenZeppelin/openzeppelin-contracts/blob/solc-0.6/contracts/utils/Address.sol\":7091:7816  function _verifyCallResult(bool success, bytes memory returndata, string memory errorMessage) private pure returns(bytes memory) {... */\n    tag_141:\n      swap4\n      swap3\n      pop\n      pop\n      pop\n      jump\t// out\n    stop\n    data_245f15ff17f551913a7a18385165551503906a406f905ac1c2437281a7cd0cfe 4f776e61626c653a206e6577206f776e657220697320746865207a65726f2061646472657373\n    data_565f1a77334fc4792800921178c71e4521acffab18ff9e7885b49377ee80ab4c 416464726573733a20696e73756666696369656e742062616c616e636520666f722063616c6c\n    data_8fe07d1a7bc8ed40574aa57beae4fbd43367cc89459755c316997d76d102b27d 496e76616c69642062616c616e63652c207761732074686520666c6173684c6f616e207375636365737366756c3f\n    data_e11ad79d1e4a7f2e5f376964cb99e8e8f7904e3fc16a109f7a7ecb9aa7956dcd 5361666545524332303a204552433230206f7065726174696f6e20646964206e6f742073756363656564\n\n    auxdata: 0xa264697066735822122051f17355b2b36224632b123ce7a0573075ad4c6309089469b2f4b88413aad95d64736f6c634300060c0033\n}\n",
				"bytecode": {
					"linkReferences": {},
					"object": "608060405234801561001057600080fd5b5060405161161a38038061161a8339818101604052602081101561003357600080fd5b810190808051906020019092919050505080600061005561013b60201b60201c565b9050806000806101000a81548173ffffffffffffffffffffffffffffffffffffffff021916908373ffffffffffffffffffffffffffffffffffffffff1602179055508073ffffffffffffffffffffffffffffffffffffffff16600073ffffffffffffffffffffffffffffffffffffffff167f8be0079c531659141344cd1fd0a4f28419497f9722a3daafe3b4186f6b6457e060405160405180910390a35080600160006101000a81548173ffffffffffffffffffffffffffffffffffffffff021916908373ffffffffffffffffffffffffffffffffffffffff1602179055505050610143565b600033905090565b6114c8806101526000396000f3fe6080604052600436106100745760003560e01c80638da5cb5b1161004e5780638da5cb5b146100ff578063c72c4d1014610140578063ee87255814610181578063f2fde38b1461023b5761007b565b80631b89b61a1461008057806351cff8d914610097578063715018a6146100e85761007b565b3661007b57005b600080fd5b34801561008c57600080fd5b5061009561028c565b005b3480156100a357600080fd5b506100e6600480360360208110156100ba57600080fd5b81019080803573ffffffffffffffffffffffffffffffffffffffff16906020019092919050505061053d565b005b3480156100f457600080fd5b506100fd6107c7565b005b34801561010b57600080fd5b50610114610934565b604051808273ffffffffffffffffffffffffffffffffffffffff16815260200191505060405180910390f35b34801561014c57600080fd5b5061015561095d565b604051808273ffffffffffffffffffffffffffffffffffffffff16815260200191505060405180910390f35b34801561018d57600080fd5b50610239600480360360808110156101a457600080fd5b81019080803573ffffffffffffffffffffffffffffffffffffffff1690602001909291908035906020019092919080359060200190929190803590602001906401000000008111156101f557600080fd5b82018360208201111561020757600080fd5b8035906020019184600183028401116401000000008311171561022957600080fd5b9091929391929390505050610983565b005b34801561024757600080fd5b5061028a6004803603602081101561025e57600080fd5b81019080803573ffffffffffffffffffffffffffffffffffffffff169060200190929190505050610a0e565b005b610294610c00565b73ffffffffffffffffffffffffffffffffffffffff166102b2610934565b73ffffffffffffffffffffffffffffffffffffffff161461033b576040517f08c379a00000000000000000000000000000000000000000000000000000000081526004018080602001828103825260208152602001807f4f776e61626c653a2063616c6c6572206973206e6f7420746865206f776e657281525060200191505060405180910390fd5b60003090506000736b175474e89094c44da98b954eedeac495271d0f90506000683635c9adc5dea00000905060606040518060200160405280600081525090506000600160009054906101000a900473ffffffffffffffffffffffffffffffffffffffff1673ffffffffffffffffffffffffffffffffffffffff16630261bf8b6040518163ffffffff1660e01b815260040160206040518083038186803b1580156103e557600080fd5b505afa1580156103f9573d6000803e3d6000fd5b505050506040513d602081101561040f57600080fd5b810190808051906020019092919050505090508073ffffffffffffffffffffffffffffffffffffffff16635cffe9de308686866040518563ffffffff1660e01b8152600401808573ffffffffffffffffffffffffffffffffffffffff1681526020018473ffffffffffffffffffffffffffffffffffffffff16815260200183815260200180602001828103825283818151815260200191508051906020019080838360005b838110156104cf5780820151818401526020810190506104b4565b50505050905090810190601f1680156104fc5780820380516001836020036101000a031916815260200191505b5095505050505050600060405180830381600087803b15801561051e57600080fd5b505af1158015610532573d6000803e3d6000fd5b505050505050505050565b610545610c00565b73ffffffffffffffffffffffffffffffffffffffff16610563610934565b73ffffffffffffffffffffffffffffffffffffffff16146105ec576040517f08c379a00000000000000000000000000000000000000000000000000000000081526004018080602001828103825260208152602001807f4f776e61626c653a2063616c6c6572206973206e6f7420746865206f776e657281525060200191505060405180910390fd5b60008073ffffffffffffffffffffffffffffffffffffffff168273ffffffffffffffffffffffffffffffffffffffff16141561068e5760003090508073ffffffffffffffffffffffffffffffffffffffff163191503373ffffffffffffffffffffffffffffffffffffffff166108fc839081150290604051600060405180830381858888f19350505050158015610687573d6000803e3d6000fd5b505061075e565b8173ffffffffffffffffffffffffffffffffffffffff166370a08231306040518263ffffffff1660e01b8152600401808273ffffffffffffffffffffffffffffffffffffffff16815260200191505060206040518083038186803b1580156106f557600080fd5b505afa158015610709573d6000803e3d6000fd5b505050506040513d602081101561071f57600080fd5b8101908080519060200190929190505050905061075d33828473ffffffffffffffffffffffffffffffffffffffff16610c089092919063ffffffff16565b5b8173ffffffffffffffffffffffffffffffffffffffff163373ffffffffffffffffffffffffffffffffffffffff167f9207361cc2a04b9c7a06691df1eb87c6a63957ae88bf01d0d18c81e3d1272099836040518082815260200191505060405180910390a35050565b6107cf610c00565b73ffffffffffffffffffffffffffffffffffffffff166107ed610934565b73ffffffffffffffffffffffffffffffffffffffff1614610876576040517f08c379a00000000000000000000000000000000000000000000000000000000081526004018080602001828103825260208152602001807f4f776e61626c653a2063616c6c6572206973206e6f7420746865206f776e657281525060200191505060405180910390fd5b600073ffffffffffffffffffffffffffffffffffffffff1660008054906101000a900473ffffffffffffffffffffffffffffffffffffffff1673ffffffffffffffffffffffffffffffffffffffff167f8be0079c531659141344cd1fd0a4f28419497f9722a3daafe3b4186f6b6457e060405160405180910390a360008060006101000a81548173ffffffffffffffffffffffffffffffffffffffff021916908373ffffffffffffffffffffffffffffffffffffffff160217905550565b60008060009054906101000a900473ffffffffffffffffffffffffffffffffffffffff16905090565b600160009054906101000a900473ffffffffffffffffffffffffffffffffffffffff1681565b61098d3086610caa565b8411156109e5576040517f08c379a000000000000000000000000000000000000000000000000000000000815260040180806020018281038252602e81526020018061143b602e913960400191505060405180910390fd5b60006109fa8486610dbe90919063ffffffff16565b9050610a068682610e46565b505050505050565b610a16610c00565b73ffffffffffffffffffffffffffffffffffffffff16610a34610934565b73ffffffffffffffffffffffffffffffffffffffff1614610abd576040517f08c379a00000000000000000000000000000000000000000000000000000000081526004018080602001828103825260208152602001807f4f776e61626c653a2063616c6c6572206973206e6f7420746865206f776e657281525060200191505060405180910390fd5b600073ffffffffffffffffffffffffffffffffffffffff168173ffffffffffffffffffffffffffffffffffffffff161415610b43576040517f08c379a00000000000000000000000000000000000000000000000000000000081526004018080602001828103825260268152602001806113ef6026913960400191505060405180910390fd5b8073ffffffffffffffffffffffffffffffffffffffff1660008054906101000a900473ffffffffffffffffffffffffffffffffffffffff1673ffffffffffffffffffffffffffffffffffffffff167f8be0079c531659141344cd1fd0a4f28419497f9722a3daafe3b4186f6b6457e060405160405180910390a3806000806101000a81548173ffffffffffffffffffffffffffffffffffffffff021916908373ffffffffffffffffffffffffffffffffffffffff16021790555050565b600033905090565b610ca58363a9059cbb60e01b8484604051602401808373ffffffffffffffffffffffffffffffffffffffff16815260200182815260200192505050604051602081830303815290604052907bffffffffffffffffffffffffffffffffffffffffffffffffffffffff19166020820180517bffffffffffffffffffffffffffffffffffffffffffffffffffffffff8381831617835250505050610efd565b505050565b600073eeeeeeeeeeeeeeeeeeeeeeeeeeeeeeeeeeeeeeee73ffffffffffffffffffffffffffffffffffffffff168273ffffffffffffffffffffffffffffffffffffffff161415610d13578273ffffffffffffffffffffffffffffffffffffffff16319050610db8565b8173ffffffffffffffffffffffffffffffffffffffff166370a08231846040518263ffffffff1660e01b8152600401808273ffffffffffffffffffffffffffffffffffffffff16815260200191505060206040518083038186803b158015610d7a57600080fd5b505afa158015610d8e573d6000803e3d6000fd5b505050506040513d6020811015610da457600080fd5b810190808051906020019092919050505090505b92915050565b600080828401905083811015610e3c576040517f08c379a000000000000000000000000000000000000000000000000000000000815260040180806020018281038252601b8152602001807f536166654d6174683a206164646974696f6e206f766572666c6f77000000000081525060200191505060405180910390fd5b8091505092915050565b6000600160009054906101000a900473ffffffffffffffffffffffffffffffffffffffff1673ffffffffffffffffffffffffffffffffffffffff1663ed6ff7606040518163ffffffff1660e01b815260040160206040518083038186803b158015610eb057600080fd5b505afa158015610ec4573d6000803e3d6000fd5b505050506040513d6020811015610eda57600080fd5b81019080805190602001909291905050509050610ef8818484610fec565b505050565b6060610f5f826040518060400160405280602081526020017f5361666545524332303a206c6f772d6c6576656c2063616c6c206661696c65648152508573ffffffffffffffffffffffffffffffffffffffff1661114e9092919063ffffffff16565b9050600081511115610fe757808060200190516020811015610f8057600080fd5b8101908080519060200190929190505050610fe6576040517f08c379a000000000000000000000000000000000000000000000000000000000815260040180806020018281038252602a815260200180611469602a913960400191505060405180910390fd5b5b505050565b73eeeeeeeeeeeeeeeeeeeeeeeeeeeeeeeeeeeeeeee73ffffffffffffffffffffffffffffffffffffffff168273ffffffffffffffffffffffffffffffffffffffff16141561111d5760008373ffffffffffffffffffffffffffffffffffffffff168260405180600001905060006040518083038185875af1925050503d8060008114611094576040519150601f19603f3d011682016040523d82523d6000602084013e611099565b606091505b505090506001151581151514611117576040517f08c379a00000000000000000000000000000000000000000000000000000000081526004018080602001828103825260158152602001807f436f756c646e2774207472616e7366657220455448000000000000000000000081525060200191505060405180910390fd5b50611149565b61114883828473ffffffffffffffffffffffffffffffffffffffff16610c089092919063ffffffff16565b5b505050565b606061115d8484600085611166565b90509392505050565b6060824710156111c1576040517f08c379a00000000000000000000000000000000000000000000000000000000081526004018080602001828103825260268152602001806114156026913960400191505060405180910390fd5b6111ca8561130f565b61123c576040517f08c379a000000000000000000000000000000000000000000000000000000000815260040180806020018281038252601d8152602001807f416464726573733a2063616c6c20746f206e6f6e2d636f6e747261637400000081525060200191505060405180910390fd5b600060608673ffffffffffffffffffffffffffffffffffffffff1685876040518082805190602001908083835b6020831061128c5780518252602082019150602081019050602083039250611269565b6001836020036101000a03801982511681845116808217855250505050505090500191505060006040518083038185875af1925050503d80600081146112ee576040519150601f19603f3d011682016040523d82523d6000602084013e6112f3565b606091505b5091509150611303828286611322565b92505050949350505050565b600080823b905060008111915050919050565b60608315611332578290506113e7565b6000835111156113455782518084602001fd5b816040517f08c379a00000000000000000000000000000000000000000000000000000000081526004018080602001828103825283818151815260200191508051906020019080838360005b838110156113ac578082015181840152602081019050611391565b50505050905090810190601f1680156113d95780820380516001836020036101000a031916815260200191505b509250505060405180910390fd5b939250505056fe4f776e61626c653a206e6577206f776e657220697320746865207a65726f2061646472657373416464726573733a20696e73756666696369656e742062616c616e636520666f722063616c6c496e76616c69642062616c616e63652c207761732074686520666c6173684c6f616e207375636365737366756c3f5361666545524332303a204552433230206f7065726174696f6e20646964206e6f742073756363656564a264697066735822122051f17355b2b36224632b123ce7a0573075ad4c6309089469b2f4b88413aad95d64736f6c634300060c0033",
					"opcodes": "PUSH1 0x80 PUSH1 0x40 MSTORE CALLVALUE DUP1 ISZERO PUSH2 0x10 JUMPI PUSH1 0x0 DUP1 REVERT JUMPDEST POP PUSH1 0x40 MLOAD PUSH2 0x161A CODESIZE SUB DUP1 PUSH2 0x161A DUP4 CODECOPY DUP2 DUP2 ADD PUSH1 0x40 MSTORE PUSH1 0x20 DUP2 LT ISZERO PUSH2 0x33 JUMPI PUSH1 0x0 DUP1 REVERT JUMPDEST DUP2 ADD SWAP1 DUP1 DUP1 MLOAD SWAP1 PUSH1 0x20 ADD SWAP1 SWAP3 SWAP2 SWAP1 POP POP POP DUP1 PUSH1 0x0 PUSH2 0x55 PUSH2 0x13B PUSH1 0x20 SHL PUSH1 0x20 SHR JUMP JUMPDEST SWAP1 POP DUP1 PUSH1 0x0 DUP1 PUSH2 0x100 EXP DUP2 SLOAD DUP2 PUSH20 0xFFFFFFFFFFFFFFFFFFFFFFFFFFFFFFFFFFFFFFFF MUL NOT AND SWAP1 DUP4 PUSH20 0xFFFFFFFFFFFFFFFFFFFFFFFFFFFFFFFFFFFFFFFF AND MUL OR SWAP1 SSTORE POP DUP1 PUSH20 0xFFFFFFFFFFFFFFFFFFFFFFFFFFFFFFFFFFFFFFFF AND PUSH1 0x0 PUSH20 0xFFFFFFFFFFFFFFFFFFFFFFFFFFFFFFFFFFFFFFFF AND PUSH32 0x8BE0079C531659141344CD1FD0A4F28419497F9722A3DAAFE3B4186F6B6457E0 PUSH1 0x40 MLOAD PUSH1 0x40 MLOAD DUP1 SWAP2 SUB SWAP1 LOG3 POP DUP1 PUSH1 0x1 PUSH1 0x0 PUSH2 0x100 EXP DUP2 SLOAD DUP2 PUSH20 0xFFFFFFFFFFFFFFFFFFFFFFFFFFFFFFFFFFFFFFFF MUL NOT AND SWAP1 DUP4 PUSH20 0xFFFFFFFFFFFFFFFFFFFFFFFFFFFFFFFFFFFFFFFF AND MUL OR SWAP1 SSTORE POP POP POP PUSH2 0x143 JUMP JUMPDEST PUSH1 0x0 CALLER SWAP1 POP SWAP1 JUMP JUMPDEST PUSH2 0x14C8 DUP1 PUSH2 0x152 PUSH1 0x0 CODECOPY PUSH1 0x0 RETURN INVALID PUSH1 0x80 PUSH1 0x40 MSTORE PUSH1 0x4 CALLDATASIZE LT PUSH2 0x74 JUMPI PUSH1 0x0 CALLDATALOAD PUSH1 0xE0 SHR DUP1 PUSH4 0x8DA5CB5B GT PUSH2 0x4E JUMPI DUP1 PUSH4 0x8DA5CB5B EQ PUSH2 0xFF JUMPI DUP1 PUSH4 0xC72C4D10 EQ PUSH2 0x140 JUMPI DUP1 PUSH4 0xEE872558 EQ PUSH2 0x181 JUMPI DUP1 PUSH4 0xF2FDE38B EQ PUSH2 0x23B JUMPI PUSH2 0x7B JUMP JUMPDEST DUP1 PUSH4 0x1B89B61A EQ PUSH2 0x80 JUMPI DUP1 PUSH4 0x51CFF8D9 EQ PUSH2 0x97 JUMPI DUP1 PUSH4 0x715018A6 EQ PUSH2 0xE8 JUMPI PUSH2 0x7B JUMP JUMPDEST CALLDATASIZE PUSH2 0x7B JUMPI STOP JUMPDEST PUSH1 0x0 DUP1 REVERT JUMPDEST CALLVALUE DUP1 ISZERO PUSH2 0x8C JUMPI PUSH1 0x0 DUP1 REVERT JUMPDEST POP PUSH2 0x95 PUSH2 0x28C JUMP JUMPDEST STOP JUMPDEST CALLVALUE DUP1 ISZERO PUSH2 0xA3 JUMPI PUSH1 0x0 DUP1 REVERT JUMPDEST POP PUSH2 0xE6 PUSH1 0x4 DUP1 CALLDATASIZE SUB PUSH1 0x20 DUP2 LT ISZERO PUSH2 0xBA JUMPI PUSH1 0x0 DUP1 REVERT JUMPDEST DUP2 ADD SWAP1 DUP1 DUP1 CALLDATALOAD PUSH20 0xFFFFFFFFFFFFFFFFFFFFFFFFFFFFFFFFFFFFFFFF AND SWAP1 PUSH1 0x20 ADD SWAP1 SWAP3 SWAP2 SWAP1 POP POP POP PUSH2 0x53D JUMP JUMPDEST STOP JUMPDEST CALLVALUE DUP1 ISZERO PUSH2 0xF4 JUMPI PUSH1 0x0 DUP1 REVERT JUMPDEST POP PUSH2 0xFD PUSH2 0x7C7 JUMP JUMPDEST STOP JUMPDEST CALLVALUE DUP1 ISZERO PUSH2 0x10B JUMPI PUSH1 0x0 DUP1 REVERT JUMPDEST POP PUSH2 0x114 PUSH2 0x934 JUMP JUMPDEST PUSH1 0x40 MLOAD DUP1 DUP3 PUSH20 0xFFFFFFFFFFFFFFFFFFFFFFFFFFFFFFFFFFFFFFFF AND DUP2 MSTORE PUSH1 0x20 ADD SWAP2 POP POP PUSH1 0x40 MLOAD DUP1 SWAP2 SUB SWAP1 RETURN JUMPDEST CALLVALUE DUP1 ISZERO PUSH2 0x14C JUMPI PUSH1 0x0 DUP1 REVERT JUMPDEST POP PUSH2 0x155 PUSH2 0x95D JUMP JUMPDEST PUSH1 0x40 MLOAD DUP1 DUP3 PUSH20 0xFFFFFFFFFFFFFFFFFFFFFFFFFFFFFFFFFFFFFFFF AND DUP2 MSTORE PUSH1 0x20 ADD SWAP2 POP POP PUSH1 0x40 MLOAD DUP1 SWAP2 SUB SWAP1 RETURN JUMPDEST CALLVALUE DUP1 ISZERO PUSH2 0x18D JUMPI PUSH1 0x0 DUP1 REVERT JUMPDEST POP PUSH2 0x239 PUSH1 0x4 DUP1 CALLDATASIZE SUB PUSH1 0x80 DUP2 LT ISZERO PUSH2 0x1A4 JUMPI PUSH1 0x0 DUP1 REVERT JUMPDEST DUP2 ADD SWAP1 DUP1 DUP1 CALLDATALOAD PUSH20 0xFFFFFFFFFFFFFFFFFFFFFFFFFFFFFFFFFFFFFFFF AND SWAP1 PUSH1 0x20 ADD SWAP1 SWAP3 SWAP2 SWAP1 DUP1 CALLDATALOAD SWAP1 PUSH1 0x20 ADD SWAP1 SWAP3 SWAP2 SWAP1 DUP1 CALLDATALOAD SWAP1 PUSH1 0x20 ADD SWAP1 SWAP3 SWAP2 SWAP1 DUP1 CALLDATALOAD SWAP1 PUSH1 0x20 ADD SWAP1 PUSH5 0x100000000 DUP2 GT ISZERO PUSH2 0x1F5 JUMPI PUSH1 0x0 DUP1 REVERT JUMPDEST DUP3 ADD DUP4 PUSH1 0x20 DUP3 ADD GT ISZERO PUSH2 0x207 JUMPI PUSH1 0x0 DUP1 REVERT JUMPDEST DUP1 CALLDATALOAD SWAP1 PUSH1 0x20 ADD SWAP2 DUP5 PUSH1 0x1 DUP4 MUL DUP5 ADD GT PUSH5 0x100000000 DUP4 GT OR ISZERO PUSH2 0x229 JUMPI PUSH1 0x0 DUP1 REVERT JUMPDEST SWAP1 SWAP2 SWAP3 SWAP4 SWAP2 SWAP3 SWAP4 SWAP1 POP POP POP PUSH2 0x983 JUMP JUMPDEST STOP JUMPDEST CALLVALUE DUP1 ISZERO PUSH2 0x247 JUMPI PUSH1 0x0 DUP1 REVERT JUMPDEST POP PUSH2 0x28A PUSH1 0x4 DUP1 CALLDATASIZE SUB PUSH1 0x20 DUP2 LT ISZERO PUSH2 0x25E JUMPI PUSH1 0x0 DUP1 REVERT JUMPDEST DUP2 ADD SWAP1 DUP1 DUP1 CALLDATALOAD PUSH20 0xFFFFFFFFFFFFFFFFFFFFFFFFFFFFFFFFFFFFFFFF AND SWAP1 PUSH1 0x20 ADD SWAP1 SWAP3 SWAP2 SWAP1 POP POP POP PUSH2 0xA0E JUMP JUMPDEST STOP JUMPDEST PUSH2 0x294 PUSH2 0xC00 JUMP JUMPDEST PUSH20 0xFFFFFFFFFFFFFFFFFFFFFFFFFFFFFFFFFFFFFFFF AND PUSH2 0x2B2 PUSH2 0x934 JUMP JUMPDEST PUSH20 0xFFFFFFFFFFFFFFFFFFFFFFFFFFFFFFFFFFFFFFFF AND EQ PUSH2 0x33B JUMPI PUSH1 0x40 MLOAD PUSH32 0x8C379A000000000000000000000000000000000000000000000000000000000 DUP2 MSTORE PUSH1 0x4 ADD DUP1 DUP1 PUSH1 0x20 ADD DUP3 DUP2 SUB DUP3 MSTORE PUSH1 0x20 DUP2 MSTORE PUSH1 0x20 ADD DUP1 PUSH32 0x4F776E61626C653A2063616C6C6572206973206E6F7420746865206F776E6572 DUP2 MSTORE POP PUSH1 0x20 ADD SWAP2 POP POP PUSH1 0x40 MLOAD DUP1 SWAP2 SUB SWAP1 REVERT JUMPDEST PUSH1 0x0 ADDRESS SWAP1 POP PUSH1 0x0 PUSH20 0x6B175474E89094C44DA98B954EEDEAC495271D0F SWAP1 POP PUSH1 0x0 PUSH9 0x3635C9ADC5DEA00000 SWAP1 POP PUSH1 0x60 PUSH1 0x40 MLOAD DUP1 PUSH1 0x20 ADD PUSH1 0x40 MSTORE DUP1 PUSH1 0x0 DUP2 MSTORE POP SWAP1 POP PUSH1 0x0 PUSH1 0x1 PUSH1 0x0 SWAP1 SLOAD SWAP1 PUSH2 0x100 EXP SWAP1 DIV PUSH20 0xFFFFFFFFFFFFFFFFFFFFFFFFFFFFFFFFFFFFFFFF AND PUSH20 0xFFFFFFFFFFFFFFFFFFFFFFFFFFFFFFFFFFFFFFFF AND PUSH4 0x261BF8B PUSH1 0x40 MLOAD DUP2 PUSH4 0xFFFFFFFF AND PUSH1 0xE0 SHL DUP2 MSTORE PUSH1 0x4 ADD PUSH1 0x20 PUSH1 0x40 MLOAD DUP1 DUP4 SUB DUP2 DUP7 DUP1 EXTCODESIZE ISZERO DUP1 ISZERO PUSH2 0x3E5 JUMPI PUSH1 0x0 DUP1 REVERT JUMPDEST POP GAS STATICCALL ISZERO DUP1 ISZERO PUSH2 0x3F9 JUMPI RETURNDATASIZE PUSH1 0x0 DUP1 RETURNDATACOPY RETURNDATASIZE PUSH1 0x0 REVERT JUMPDEST POP POP POP POP PUSH1 0x40 MLOAD RETURNDATASIZE PUSH1 0x20 DUP2 LT ISZERO PUSH2 0x40F JUMPI PUSH1 0x0 DUP1 REVERT JUMPDEST DUP2 ADD SWAP1 DUP1 DUP1 MLOAD SWAP1 PUSH1 0x20 ADD SWAP1 SWAP3 SWAP2 SWAP1 POP POP POP SWAP1 POP DUP1 PUSH20 0xFFFFFFFFFFFFFFFFFFFFFFFFFFFFFFFFFFFFFFFF AND PUSH4 0x5CFFE9DE ADDRESS DUP7 DUP7 DUP7 PUSH1 0x40 MLOAD DUP6 PUSH4 0xFFFFFFFF AND PUSH1 0xE0 SHL DUP2 MSTORE PUSH1 0x4 ADD DUP1 DUP6 PUSH20 0xFFFFFFFFFFFFFFFFFFFFFFFFFFFFFFFFFFFFFFFF AND DUP2 MSTORE PUSH1 0x20 ADD DUP5 PUSH20 0xFFFFFFFFFFFFFFFFFFFFFFFFFFFFFFFFFFFFFFFF AND DUP2 MSTORE PUSH1 0x20 ADD DUP4 DUP2 MSTORE PUSH1 0x20 ADD DUP1 PUSH1 0x20 ADD DUP3 DUP2 SUB DUP3 MSTORE DUP4 DUP2 DUP2 MLOAD DUP2 MSTORE PUSH1 0x20 ADD SWAP2 POP DUP1 MLOAD SWAP1 PUSH1 0x20 ADD SWAP1 DUP1 DUP4 DUP4 PUSH1 0x0 JUMPDEST DUP4 DUP2 LT ISZERO PUSH2 0x4CF JUMPI DUP1 DUP3 ADD MLOAD DUP2 DUP5 ADD MSTORE PUSH1 0x20 DUP2 ADD SWAP1 POP PUSH2 0x4B4 JUMP JUMPDEST POP POP POP POP SWAP1 POP SWAP1 DUP2 ADD SWAP1 PUSH1 0x1F AND DUP1 ISZERO PUSH2 0x4FC JUMPI DUP1 DUP3 SUB DUP1 MLOAD PUSH1 0x1 DUP4 PUSH1 0x20 SUB PUSH2 0x100 EXP SUB NOT AND DUP2 MSTORE PUSH1 0x20 ADD SWAP2 POP JUMPDEST POP SWAP6 POP POP POP POP POP POP PUSH1 0x0 PUSH1 0x40 MLOAD DUP1 DUP4 SUB DUP2 PUSH1 0x0 DUP8 DUP1 EXTCODESIZE ISZERO DUP1 ISZERO PUSH2 0x51E JUMPI PUSH1 0x0 DUP1 REVERT JUMPDEST POP GAS CALL ISZERO DUP1 ISZERO PUSH2 0x532 JUMPI RETURNDATASIZE PUSH1 0x0 DUP1 RETURNDATACOPY RETURNDATASIZE PUSH1 0x0 REVERT JUMPDEST POP POP POP POP POP POP POP POP POP JUMP JUMPDEST PUSH2 0x545 PUSH2 0xC00 JUMP JUMPDEST PUSH20 0xFFFFFFFFFFFFFFFFFFFFFFFFFFFFFFFFFFFFFFFF AND PUSH2 0x563 PUSH2 0x934 JUMP JUMPDEST PUSH20 0xFFFFFFFFFFFFFFFFFFFFFFFFFFFFFFFFFFFFFFFF AND EQ PUSH2 0x5EC JUMPI PUSH1 0x40 MLOAD PUSH32 0x8C379A000000000000000000000000000000000000000000000000000000000 DUP2 MSTORE PUSH1 0x4 ADD DUP1 DUP1 PUSH1 0x20 ADD DUP3 DUP2 SUB DUP3 MSTORE PUSH1 0x20 DUP2 MSTORE PUSH1 0x20 ADD DUP1 PUSH32 0x4F776E61626C653A2063616C6C6572206973206E6F7420746865206F776E6572 DUP2 MSTORE POP PUSH1 0x20 ADD SWAP2 POP POP PUSH1 0x40 MLOAD DUP1 SWAP2 SUB SWAP1 REVERT JUMPDEST PUSH1 0x0 DUP1 PUSH20 0xFFFFFFFFFFFFFFFFFFFFFFFFFFFFFFFFFFFFFFFF AND DUP3 PUSH20 0xFFFFFFFFFFFFFFFFFFFFFFFFFFFFFFFFFFFFFFFF AND EQ ISZERO PUSH2 0x68E JUMPI PUSH1 0x0 ADDRESS SWAP1 POP DUP1 PUSH20 0xFFFFFFFFFFFFFFFFFFFFFFFFFFFFFFFFFFFFFFFF AND BALANCE SWAP2 POP CALLER PUSH20 0xFFFFFFFFFFFFFFFFFFFFFFFFFFFFFFFFFFFFFFFF AND PUSH2 0x8FC DUP4 SWAP1 DUP2 ISZERO MUL SWAP1 PUSH1 0x40 MLOAD PUSH1 0x0 PUSH1 0x40 MLOAD DUP1 DUP4 SUB DUP2 DUP6 DUP9 DUP9 CALL SWAP4 POP POP POP POP ISZERO DUP1 ISZERO PUSH2 0x687 JUMPI RETURNDATASIZE PUSH1 0x0 DUP1 RETURNDATACOPY RETURNDATASIZE PUSH1 0x0 REVERT JUMPDEST POP POP PUSH2 0x75E JUMP JUMPDEST DUP2 PUSH20 0xFFFFFFFFFFFFFFFFFFFFFFFFFFFFFFFFFFFFFFFF AND PUSH4 0x70A08231 ADDRESS PUSH1 0x40 MLOAD DUP3 PUSH4 0xFFFFFFFF AND PUSH1 0xE0 SHL DUP2 MSTORE PUSH1 0x4 ADD DUP1 DUP3 PUSH20 0xFFFFFFFFFFFFFFFFFFFFFFFFFFFFFFFFFFFFFFFF AND DUP2 MSTORE PUSH1 0x20 ADD SWAP2 POP POP PUSH1 0x20 PUSH1 0x40 MLOAD DUP1 DUP4 SUB DUP2 DUP7 DUP1 EXTCODESIZE ISZERO DUP1 ISZERO PUSH2 0x6F5 JUMPI PUSH1 0x0 DUP1 REVERT JUMPDEST POP GAS STATICCALL ISZERO DUP1 ISZERO PUSH2 0x709 JUMPI RETURNDATASIZE PUSH1 0x0 DUP1 RETURNDATACOPY RETURNDATASIZE PUSH1 0x0 REVERT JUMPDEST POP POP POP POP PUSH1 0x40 MLOAD RETURNDATASIZE PUSH1 0x20 DUP2 LT ISZERO PUSH2 0x71F JUMPI PUSH1 0x0 DUP1 REVERT JUMPDEST DUP2 ADD SWAP1 DUP1 DUP1 MLOAD SWAP1 PUSH1 0x20 ADD SWAP1 SWAP3 SWAP2 SWAP1 POP POP POP SWAP1 POP PUSH2 0x75D CALLER DUP3 DUP5 PUSH20 0xFFFFFFFFFFFFFFFFFFFFFFFFFFFFFFFFFFFFFFFF AND PUSH2 0xC08 SWAP1 SWAP3 SWAP2 SWAP1 PUSH4 0xFFFFFFFF AND JUMP JUMPDEST JUMPDEST DUP2 PUSH20 0xFFFFFFFFFFFFFFFFFFFFFFFFFFFFFFFFFFFFFFFF AND CALLER PUSH20 0xFFFFFFFFFFFFFFFFFFFFFFFFFFFFFFFFFFFFFFFF AND PUSH32 0x9207361CC2A04B9C7A06691DF1EB87C6A63957AE88BF01D0D18C81E3D1272099 DUP4 PUSH1 0x40 MLOAD DUP1 DUP3 DUP2 MSTORE PUSH1 0x20 ADD SWAP2 POP POP PUSH1 0x40 MLOAD DUP1 SWAP2 SUB SWAP1 LOG3 POP POP JUMP JUMPDEST PUSH2 0x7CF PUSH2 0xC00 JUMP JUMPDEST PUSH20 0xFFFFFFFFFFFFFFFFFFFFFFFFFFFFFFFFFFFFFFFF AND PUSH2 0x7ED PUSH2 0x934 JUMP JUMPDEST PUSH20 0xFFFFFFFFFFFFFFFFFFFFFFFFFFFFFFFFFFFFFFFF AND EQ PUSH2 0x876 JUMPI PUSH1 0x40 MLOAD PUSH32 0x8C379A000000000000000000000000000000000000000000000000000000000 DUP2 MSTORE PUSH1 0x4 ADD DUP1 DUP1 PUSH1 0x20 ADD DUP3 DUP2 SUB DUP3 MSTORE PUSH1 0x20 DUP2 MSTORE PUSH1 0x20 ADD DUP1 PUSH32 0x4F776E61626C653A2063616C6C6572206973206E6F7420746865206F776E6572 DUP2 MSTORE POP PUSH1 0x20 ADD SWAP2 POP POP PUSH1 0x40 MLOAD DUP1 SWAP2 SUB SWAP1 REVERT JUMPDEST PUSH1 0x0 PUSH20 0xFFFFFFFFFFFFFFFFFFFFFFFFFFFFFFFFFFFFFFFF AND PUSH1 0x0 DUP1 SLOAD SWAP1 PUSH2 0x100 EXP SWAP1 DIV PUSH20 0xFFFFFFFFFFFFFFFFFFFFFFFFFFFFFFFFFFFFFFFF AND PUSH20 0xFFFFFFFFFFFFFFFFFFFFFFFFFFFFFFFFFFFFFFFF AND PUSH32 0x8BE0079C531659141344CD1FD0A4F28419497F9722A3DAAFE3B4186F6B6457E0 PUSH1 0x40 MLOAD PUSH1 0x40 MLOAD DUP1 SWAP2 SUB SWAP1 LOG3 PUSH1 0x0 DUP1 PUSH1 0x0 PUSH2 0x100 EXP DUP2 SLOAD DUP2 PUSH20 0xFFFFFFFFFFFFFFFFFFFFFFFFFFFFFFFFFFFFFFFF MUL NOT AND SWAP1 DUP4 PUSH20 0xFFFFFFFFFFFFFFFFFFFFFFFFFFFFFFFFFFFFFFFF AND MUL OR SWAP1 SSTORE POP JUMP JUMPDEST PUSH1 0x0 DUP1 PUSH1 0x0 SWAP1 SLOAD SWAP1 PUSH2 0x100 EXP SWAP1 DIV PUSH20 0xFFFFFFFFFFFFFFFFFFFFFFFFFFFFFFFFFFFFFFFF AND SWAP1 POP SWAP1 JUMP JUMPDEST PUSH1 0x1 PUSH1 0x0 SWAP1 SLOAD SWAP1 PUSH2 0x100 EXP SWAP1 DIV PUSH20 0xFFFFFFFFFFFFFFFFFFFFFFFFFFFFFFFFFFFFFFFF AND DUP2 JUMP JUMPDEST PUSH2 0x98D ADDRESS DUP7 PUSH2 0xCAA JUMP JUMPDEST DUP5 GT ISZERO PUSH2 0x9E5 JUMPI PUSH1 0x40 MLOAD PUSH32 0x8C379A000000000000000000000000000000000000000000000000000000000 DUP2 MSTORE PUSH1 0x4 ADD DUP1 DUP1 PUSH1 0x20 ADD DUP3 DUP2 SUB DUP3 MSTORE PUSH1 0x2E DUP2 MSTORE PUSH1 0x20 ADD DUP1 PUSH2 0x143B PUSH1 0x2E SWAP2 CODECOPY PUSH1 0x40 ADD SWAP2 POP POP PUSH1 0x40 MLOAD DUP1 SWAP2 SUB SWAP1 REVERT JUMPDEST PUSH1 0x0 PUSH2 0x9FA DUP5 DUP7 PUSH2 0xDBE SWAP1 SWAP2 SWAP1 PUSH4 0xFFFFFFFF AND JUMP JUMPDEST SWAP1 POP PUSH2 0xA06 DUP7 DUP3 PUSH2 0xE46 JUMP JUMPDEST POP POP POP POP POP POP JUMP JUMPDEST PUSH2 0xA16 PUSH2 0xC00 JUMP JUMPDEST PUSH20 0xFFFFFFFFFFFFFFFFFFFFFFFFFFFFFFFFFFFFFFFF AND PUSH2 0xA34 PUSH2 0x934 JUMP JUMPDEST PUSH20 0xFFFFFFFFFFFFFFFFFFFFFFFFFFFFFFFFFFFFFFFF AND EQ PUSH2 0xABD JUMPI PUSH1 0x40 MLOAD PUSH32 0x8C379A000000000000000000000000000000000000000000000000000000000 DUP2 MSTORE PUSH1 0x4 ADD DUP1 DUP1 PUSH1 0x20 ADD DUP3 DUP2 SUB DUP3 MSTORE PUSH1 0x20 DUP2 MSTORE PUSH1 0x20 ADD DUP1 PUSH32 0x4F776E61626C653A2063616C6C6572206973206E6F7420746865206F776E6572 DUP2 MSTORE POP PUSH1 0x20 ADD SWAP2 POP POP PUSH1 0x40 MLOAD DUP1 SWAP2 SUB SWAP1 REVERT JUMPDEST PUSH1 0x0 PUSH20 0xFFFFFFFFFFFFFFFFFFFFFFFFFFFFFFFFFFFFFFFF AND DUP2 PUSH20 0xFFFFFFFFFFFFFFFFFFFFFFFFFFFFFFFFFFFFFFFF AND EQ ISZERO PUSH2 0xB43 JUMPI PUSH1 0x40 MLOAD PUSH32 0x8C379A000000000000000000000000000000000000000000000000000000000 DUP2 MSTORE PUSH1 0x4 ADD DUP1 DUP1 PUSH1 0x20 ADD DUP3 DUP2 SUB DUP3 MSTORE PUSH1 0x26 DUP2 MSTORE PUSH1 0x20 ADD DUP1 PUSH2 0x13EF PUSH1 0x26 SWAP2 CODECOPY PUSH1 0x40 ADD SWAP2 POP POP PUSH1 0x40 MLOAD DUP1 SWAP2 SUB SWAP1 REVERT JUMPDEST DUP1 PUSH20 0xFFFFFFFFFFFFFFFFFFFFFFFFFFFFFFFFFFFFFFFF AND PUSH1 0x0 DUP1 SLOAD SWAP1 PUSH2 0x100 EXP SWAP1 DIV PUSH20 0xFFFFFFFFFFFFFFFFFFFFFFFFFFFFFFFFFFFFFFFF AND PUSH20 0xFFFFFFFFFFFFFFFFFFFFFFFFFFFFFFFFFFFFFFFF AND PUSH32 0x8BE0079C531659141344CD1FD0A4F28419497F9722A3DAAFE3B4186F6B6457E0 PUSH1 0x40 MLOAD PUSH1 0x40 MLOAD DUP1 SWAP2 SUB SWAP1 LOG3 DUP1 PUSH1 0x0 DUP1 PUSH2 0x100 EXP DUP2 SLOAD DUP2 PUSH20 0xFFFFFFFFFFFFFFFFFFFFFFFFFFFFFFFFFFFFFFFF MUL NOT AND SWAP1 DUP4 PUSH20 0xFFFFFFFFFFFFFFFFFFFFFFFFFFFFFFFFFFFFFFFF AND MUL OR SWAP1 SSTORE POP POP JUMP JUMPDEST PUSH1 0x0 CALLER SWAP1 POP SWAP1 JUMP JUMPDEST PUSH2 0xCA5 DUP4 PUSH4 0xA9059CBB PUSH1 0xE0 SHL DUP5 DUP5 PUSH1 0x40 MLOAD PUSH1 0x24 ADD DUP1 DUP4 PUSH20 0xFFFFFFFFFFFFFFFFFFFFFFFFFFFFFFFFFFFFFFFF AND DUP2 MSTORE PUSH1 0x20 ADD DUP3 DUP2 MSTORE PUSH1 0x20 ADD SWAP3 POP POP POP PUSH1 0x40 MLOAD PUSH1 0x20 DUP2 DUP4 SUB SUB DUP2 MSTORE SWAP1 PUSH1 0x40 MSTORE SWAP1 PUSH28 0xFFFFFFFFFFFFFFFFFFFFFFFFFFFFFFFFFFFFFFFFFFFFFFFFFFFFFFFF NOT AND PUSH1 0x20 DUP3 ADD DUP1 MLOAD PUSH28 0xFFFFFFFFFFFFFFFFFFFFFFFFFFFFFFFFFFFFFFFFFFFFFFFFFFFFFFFF DUP4 DUP2 DUP4 AND OR DUP4 MSTORE POP POP POP POP PUSH2 0xEFD JUMP JUMPDEST POP POP POP JUMP JUMPDEST PUSH1 0x0 PUSH20 0xEEEEEEEEEEEEEEEEEEEEEEEEEEEEEEEEEEEEEEEE PUSH20 0xFFFFFFFFFFFFFFFFFFFFFFFFFFFFFFFFFFFFFFFF AND DUP3 PUSH20 0xFFFFFFFFFFFFFFFFFFFFFFFFFFFFFFFFFFFFFFFF AND EQ ISZERO PUSH2 0xD13 JUMPI DUP3 PUSH20 0xFFFFFFFFFFFFFFFFFFFFFFFFFFFFFFFFFFFFFFFF AND BALANCE SWAP1 POP PUSH2 0xDB8 JUMP JUMPDEST DUP2 PUSH20 0xFFFFFFFFFFFFFFFFFFFFFFFFFFFFFFFFFFFFFFFF AND PUSH4 0x70A08231 DUP5 PUSH1 0x40 MLOAD DUP3 PUSH4 0xFFFFFFFF AND PUSH1 0xE0 SHL DUP2 MSTORE PUSH1 0x4 ADD DUP1 DUP3 PUSH20 0xFFFFFFFFFFFFFFFFFFFFFFFFFFFFFFFFFFFFFFFF AND DUP2 MSTORE PUSH1 0x20 ADD SWAP2 POP POP PUSH1 0x20 PUSH1 0x40 MLOAD DUP1 DUP4 SUB DUP2 DUP7 DUP1 EXTCODESIZE ISZERO DUP1 ISZERO PUSH2 0xD7A JUMPI PUSH1 0x0 DUP1 REVERT JUMPDEST POP GAS STATICCALL ISZERO DUP1 ISZERO PUSH2 0xD8E JUMPI RETURNDATASIZE PUSH1 0x0 DUP1 RETURNDATACOPY RETURNDATASIZE PUSH1 0x0 REVERT JUMPDEST POP POP POP POP PUSH1 0x40 MLOAD RETURNDATASIZE PUSH1 0x20 DUP2 LT ISZERO PUSH2 0xDA4 JUMPI PUSH1 0x0 DUP1 REVERT JUMPDEST DUP2 ADD SWAP1 DUP1 DUP1 MLOAD SWAP1 PUSH1 0x20 ADD SWAP1 SWAP3 SWAP2 SWAP1 POP POP POP SWAP1 POP JUMPDEST SWAP3 SWAP2 POP POP JUMP JUMPDEST PUSH1 0x0 DUP1 DUP3 DUP5 ADD SWAP1 POP DUP4 DUP2 LT ISZERO PUSH2 0xE3C JUMPI PUSH1 0x40 MLOAD PUSH32 0x8C379A000000000000000000000000000000000000000000000000000000000 DUP2 MSTORE PUSH1 0x4 ADD DUP1 DUP1 PUSH1 0x20 ADD DUP3 DUP2 SUB DUP3 MSTORE PUSH1 0x1B DUP2 MSTORE PUSH1 0x20 ADD DUP1 PUSH32 0x536166654D6174683A206164646974696F6E206F766572666C6F770000000000 DUP2 MSTORE POP PUSH1 0x20 ADD SWAP2 POP POP PUSH1 0x40 MLOAD DUP1 SWAP2 SUB SWAP1 REVERT JUMPDEST DUP1 SWAP2 POP POP SWAP3 SWAP2 POP POP JUMP JUMPDEST PUSH1 0x0 PUSH1 0x1 PUSH1 0x0 SWAP1 SLOAD SWAP1 PUSH2 0x100 EXP SWAP1 DIV PUSH20 0xFFFFFFFFFFFFFFFFFFFFFFFFFFFFFFFFFFFFFFFF AND PUSH20 0xFFFFFFFFFFFFFFFFFFFFFFFFFFFFFFFFFFFFFFFF AND PUSH4 0xED6FF760 PUSH1 0x40 MLOAD DUP2 PUSH4 0xFFFFFFFF AND PUSH1 0xE0 SHL DUP2 MSTORE PUSH1 0x4 ADD PUSH1 0x20 PUSH1 0x40 MLOAD DUP1 DUP4 SUB DUP2 DUP7 DUP1 EXTCODESIZE ISZERO DUP1 ISZERO PUSH2 0xEB0 JUMPI PUSH1 0x0 DUP1 REVERT JUMPDEST POP GAS STATICCALL ISZERO DUP1 ISZERO PUSH2 0xEC4 JUMPI RETURNDATASIZE PUSH1 0x0 DUP1 RETURNDATACOPY RETURNDATASIZE PUSH1 0x0 REVERT JUMPDEST POP POP POP POP PUSH1 0x40 MLOAD RETURNDATASIZE PUSH1 0x20 DUP2 LT ISZERO PUSH2 0xEDA JUMPI PUSH1 0x0 DUP1 REVERT JUMPDEST DUP2 ADD SWAP1 DUP1 DUP1 MLOAD SWAP1 PUSH1 0x20 ADD SWAP1 SWAP3 SWAP2 SWAP1 POP POP POP SWAP1 POP PUSH2 0xEF8 DUP2 DUP5 DUP5 PUSH2 0xFEC JUMP JUMPDEST POP POP POP JUMP JUMPDEST PUSH1 0x60 PUSH2 0xF5F DUP3 PUSH1 0x40 MLOAD DUP1 PUSH1 0x40 ADD PUSH1 0x40 MSTORE DUP1 PUSH1 0x20 DUP2 MSTORE PUSH1 0x20 ADD PUSH32 0x5361666545524332303A206C6F772D6C6576656C2063616C6C206661696C6564 DUP2 MSTORE POP DUP6 PUSH20 0xFFFFFFFFFFFFFFFFFFFFFFFFFFFFFFFFFFFFFFFF AND PUSH2 0x114E SWAP1 SWAP3 SWAP2 SWAP1 PUSH4 0xFFFFFFFF AND JUMP JUMPDEST SWAP1 POP PUSH1 0x0 DUP2 MLOAD GT ISZERO PUSH2 0xFE7 JUMPI DUP1 DUP1 PUSH1 0x20 ADD SWAP1 MLOAD PUSH1 0x20 DUP2 LT ISZERO PUSH2 0xF80 JUMPI PUSH1 0x0 DUP1 REVERT JUMPDEST DUP2 ADD SWAP1 DUP1 DUP1 MLOAD SWAP1 PUSH1 0x20 ADD SWAP1 SWAP3 SWAP2 SWAP1 POP POP POP PUSH2 0xFE6 JUMPI PUSH1 0x40 MLOAD PUSH32 0x8C379A000000000000000000000000000000000000000000000000000000000 DUP2 MSTORE PUSH1 0x4 ADD DUP1 DUP1 PUSH1 0x20 ADD DUP3 DUP2 SUB DUP3 MSTORE PUSH1 0x2A DUP2 MSTORE PUSH1 0x20 ADD DUP1 PUSH2 0x1469 PUSH1 0x2A SWAP2 CODECOPY PUSH1 0x40 ADD SWAP2 POP POP PUSH1 0x40 MLOAD DUP1 SWAP2 SUB SWAP1 REVERT JUMPDEST JUMPDEST POP POP POP JUMP JUMPDEST PUSH20 0xEEEEEEEEEEEEEEEEEEEEEEEEEEEEEEEEEEEEEEEE PUSH20 0xFFFFFFFFFFFFFFFFFFFFFFFFFFFFFFFFFFFFFFFF AND DUP3 PUSH20 0xFFFFFFFFFFFFFFFFFFFFFFFFFFFFFFFFFFFFFFFF AND EQ ISZERO PUSH2 0x111D JUMPI PUSH1 0x0 DUP4 PUSH20 0xFFFFFFFFFFFFFFFFFFFFFFFFFFFFFFFFFFFFFFFF AND DUP3 PUSH1 0x40 MLOAD DUP1 PUSH1 0x0 ADD SWAP1 POP PUSH1 0x0 PUSH1 0x40 MLOAD DUP1 DUP4 SUB DUP2 DUP6 DUP8 GAS CALL SWAP3 POP POP POP RETURNDATASIZE DUP1 PUSH1 0x0 DUP2 EQ PUSH2 0x1094 JUMPI PUSH1 0x40 MLOAD SWAP2 POP PUSH1 0x1F NOT PUSH1 0x3F RETURNDATASIZE ADD AND DUP3 ADD PUSH1 0x40 MSTORE RETURNDATASIZE DUP3 MSTORE RETURNDATASIZE PUSH1 0x0 PUSH1 0x20 DUP5 ADD RETURNDATACOPY PUSH2 0x1099 JUMP JUMPDEST PUSH1 0x60 SWAP2 POP JUMPDEST POP POP SWAP1 POP PUSH1 0x1 ISZERO ISZERO DUP2 ISZERO ISZERO EQ PUSH2 0x1117 JUMPI PUSH1 0x40 MLOAD PUSH32 0x8C379A000000000000000000000000000000000000000000000000000000000 DUP2 MSTORE PUSH1 0x4 ADD DUP1 DUP1 PUSH1 0x20 ADD DUP3 DUP2 SUB DUP3 MSTORE PUSH1 0x15 DUP2 MSTORE PUSH1 0x20 ADD DUP1 PUSH32 0x436F756C646E2774207472616E73666572204554480000000000000000000000 DUP2 MSTORE POP PUSH1 0x20 ADD SWAP2 POP POP PUSH1 0x40 MLOAD DUP1 SWAP2 SUB SWAP1 REVERT JUMPDEST POP PUSH2 0x1149 JUMP JUMPDEST PUSH2 0x1148 DUP4 DUP3 DUP5 PUSH20 0xFFFFFFFFFFFFFFFFFFFFFFFFFFFFFFFFFFFFFFFF AND PUSH2 0xC08 SWAP1 SWAP3 SWAP2 SWAP1 PUSH4 0xFFFFFFFF AND JUMP JUMPDEST JUMPDEST POP POP POP JUMP JUMPDEST PUSH1 0x60 PUSH2 0x115D DUP5 DUP5 PUSH1 0x0 DUP6 PUSH2 0x1166 JUMP JUMPDEST SWAP1 POP SWAP4 SWAP3 POP POP POP JUMP JUMPDEST PUSH1 0x60 DUP3 SELFBALANCE LT ISZERO PUSH2 0x11C1 JUMPI PUSH1 0x40 MLOAD PUSH32 0x8C379A000000000000000000000000000000000000000000000000000000000 DUP2 MSTORE PUSH1 0x4 ADD DUP1 DUP1 PUSH1 0x20 ADD DUP3 DUP2 SUB DUP3 MSTORE PUSH1 0x26 DUP2 MSTORE PUSH1 0x20 ADD DUP1 PUSH2 0x1415 PUSH1 0x26 SWAP2 CODECOPY PUSH1 0x40 ADD SWAP2 POP POP PUSH1 0x40 MLOAD DUP1 SWAP2 SUB SWAP1 REVERT JUMPDEST PUSH2 0x11CA DUP6 PUSH2 0x130F JUMP JUMPDEST PUSH2 0x123C JUMPI PUSH1 0x40 MLOAD PUSH32 0x8C379A000000000000000000000000000000000000000000000000000000000 DUP2 MSTORE PUSH1 0x4 ADD DUP1 DUP1 PUSH1 0x20 ADD DUP3 DUP2 SUB DUP3 MSTORE PUSH1 0x1D DUP2 MSTORE PUSH1 0x20 ADD DUP1 PUSH32 0x416464726573733A2063616C6C20746F206E6F6E2D636F6E7472616374000000 DUP2 MSTORE POP PUSH1 0x20 ADD SWAP2 POP POP PUSH1 0x40 MLOAD DUP1 SWAP2 SUB SWAP1 REVERT JUMPDEST PUSH1 0x0 PUSH1 0x60 DUP7 PUSH20 0xFFFFFFFFFFFFFFFFFFFFFFFFFFFFFFFFFFFFFFFF AND DUP6 DUP8 PUSH1 0x40 MLOAD DUP1 DUP3 DUP1 MLOAD SWAP1 PUSH1 0x20 ADD SWAP1 DUP1 DUP4 DUP4 JUMPDEST PUSH1 0x20 DUP4 LT PUSH2 0x128C JUMPI DUP1 MLOAD DUP3 MSTORE PUSH1 0x20 DUP3 ADD SWAP2 POP PUSH1 0x20 DUP2 ADD SWAP1 POP PUSH1 0x20 DUP4 SUB SWAP3 POP PUSH2 0x1269 JUMP JUMPDEST PUSH1 0x1 DUP4 PUSH1 0x20 SUB PUSH2 0x100 EXP SUB DUP1 NOT DUP3 MLOAD AND DUP2 DUP5 MLOAD AND DUP1 DUP3 OR DUP6 MSTORE POP POP POP POP POP POP SWAP1 POP ADD SWAP2 POP POP PUSH1 0x0 PUSH1 0x40 MLOAD DUP1 DUP4 SUB DUP2 DUP6 DUP8 GAS CALL SWAP3 POP POP POP RETURNDATASIZE DUP1 PUSH1 0x0 DUP2 EQ PUSH2 0x12EE JUMPI PUSH1 0x40 MLOAD SWAP2 POP PUSH1 0x1F NOT PUSH1 0x3F RETURNDATASIZE ADD AND DUP3 ADD PUSH1 0x40 MSTORE RETURNDATASIZE DUP3 MSTORE RETURNDATASIZE PUSH1 0x0 PUSH1 0x20 DUP5 ADD RETURNDATACOPY PUSH2 0x12F3 JUMP JUMPDEST PUSH1 0x60 SWAP2 POP JUMPDEST POP SWAP2 POP SWAP2 POP PUSH2 0x1303 DUP3 DUP3 DUP7 PUSH2 0x1322 JUMP JUMPDEST SWAP3 POP POP POP SWAP5 SWAP4 POP POP POP POP JUMP JUMPDEST PUSH1 0x0 DUP1 DUP3 EXTCODESIZE SWAP1 POP PUSH1 0x0 DUP2 GT SWAP2 POP POP SWAP2 SWAP1 POP JUMP JUMPDEST PUSH1 0x60 DUP4 ISZERO PUSH2 0x1332 JUMPI DUP3 SWAP1 POP PUSH2 0x13E7 JUMP JUMPDEST PUSH1 0x0 DUP4 MLOAD GT ISZERO PUSH2 0x1345 JUMPI DUP3 MLOAD DUP1 DUP5 PUSH1 0x20 ADD REVERT JUMPDEST DUP2 PUSH1 0x40 MLOAD PUSH32 0x8C379A000000000000000000000000000000000000000000000000000000000 DUP2 MSTORE PUSH1 0x4 ADD DUP1 DUP1 PUSH1 0x20 ADD DUP3 DUP2 SUB DUP3 MSTORE DUP4 DUP2 DUP2 MLOAD DUP2 MSTORE PUSH1 0x20 ADD SWAP2 POP DUP1 MLOAD SWAP1 PUSH1 0x20 ADD SWAP1 DUP1 DUP4 DUP4 PUSH1 0x0 JUMPDEST DUP4 DUP2 LT ISZERO PUSH2 0x13AC JUMPI DUP1 DUP3 ADD MLOAD DUP2 DUP5 ADD MSTORE PUSH1 0x20 DUP2 ADD SWAP1 POP PUSH2 0x1391 JUMP JUMPDEST POP POP POP POP SWAP1 POP SWAP1 DUP2 ADD SWAP1 PUSH1 0x1F AND DUP1 ISZERO PUSH2 0x13D9 JUMPI DUP1 DUP3 SUB DUP1 MLOAD PUSH1 0x1 DUP4 PUSH1 0x20 SUB PUSH2 0x100 EXP SUB NOT AND DUP2 MSTORE PUSH1 0x20 ADD SWAP2 POP JUMPDEST POP SWAP3 POP POP POP PUSH1 0x40 MLOAD DUP1 SWAP2 SUB SWAP1 REVERT JUMPDEST SWAP4 SWAP3 POP POP POP JUMP INVALID 0x4F PUSH24 0x6E61626C653A206E6577206F776E65722069732074686520 PUSH27 0x65726F2061646472657373416464726573733A20696E7375666669 PUSH4 0x69656E74 KECCAK256 PUSH3 0x616C61 PUSH15 0x636520666F722063616C6C496E7661 PUSH13 0x69642062616C616E63652C2077 PUSH2 0x7320 PUSH21 0x686520666C6173684C6F616E207375636365737366 PUSH22 0x6C3F5361666545524332303A204552433230206F7065 PUSH19 0x6174696F6E20646964206E6F74207375636365 PUSH6 0x64A264697066 PUSH20 0x5822122051F17355B2B36224632B123CE7A05730 PUSH22 0xAD4C6309089469B2F4B88413AAD95D64736F6C634300 MOD 0xC STOP CALLER "
				},
				"gasEstimates": {
					"creation": {
						"codeDepositCost": "1064000",
						"executionCost": "infinite",
						"totalCost": "infinite"
					},
					"external": {
						"addressesProvider()": "1069",
						"executeOperation(address,uint256,uint256,bytes)": "infinite",
						"flashloan()": "infinite",
						"owner()": "1055",
						"renounceOwnership()": "24374",
						"transferOwnership(address)": "infinite",
						"withdraw(address)": "infinite"
					}
				},
				"methodIdentifiers": {
					"addressesProvider()": "c72c4d10",
					"executeOperation(address,uint256,uint256,bytes)": "ee872558",
					"flashloan()": "1b89b61a",
					"owner()": "8da5cb5b",
					"renounceOwnership()": "715018a6",
					"transferOwnership(address)": "f2fde38b",
					"withdraw(address)": "51cff8d9"
				}
			},
			"storageLayout": {
				"storage": [
					{
						"astId": 115,
						"contract": "contracts/Kyber-Jarvis.sol:arbitragejeur",
						"label": "_owner",
						"offset": 0,
						"slot": "0",
						"type": "t_address"
					},
					{
						"astId": 1708,
						"contract": "contracts/Kyber-Jarvis.sol:arbitragejeur",
						"label": "addressesProvider",
						"offset": 0,
						"slot": "1",
						"type": "t_contract(ILendingPoolAddressesProvider)2031"
					},
					{
						"astId": 11,
						"contract": "contracts/Kyber-Jarvis.sol:arbitragejeur",
						"label": "recipientWallet",
						"offset": 0,
						"slot": "2",
						"type": "t_address"
					}
				],
				"types": {
					"t_address": {
						"encoding": "inplace",
						"label": "address",
						"numberOfBytes": "20"
					},
					"t_contract(ILendingPoolAddressesProvider)2031": {
						"encoding": "inplace",
						"label": "contract ILendingPoolAddressesProvider",
						"numberOfBytes": "20"
					}
				}
			},
			"userdoc": {
				"kind": "user",
				"methods": {},
				"version": 1
			}
		}
	}
}